S011000042523435305F44656D6F2E733337D2
S214012000C00A00205D280100592801005928010056
S214012010D94B01005928010059280100592801000F
S21401202059280100592801005928010059280100A2
S214012030592801002883030079240100592801004A
S2140120405928010059280100592801005928010082
S2140120505928010059280100592801005928010072
S2140120605928010059280100592801005928010062
S214012070BD5A0100592801005928010059280100BC
S2140120805928010059280100592801005928010042
S2140120905928010059280100592801005928010032
S2140120A05928010059280100592801005928010022
S2140120B059280100116E030059280100F177030029
S2140120C0A9770300A5770300E16F0300ED7703000E
S2140120D0AD770300C5770300B1770300517803009D
S2140120E0CD520300955403003178030059280100AE
S2140120F0494A0100592801005928010059280100C0
S21401210059280100592801005928010059280100C1
S21401211059280100592801005928010059280100B1
S21401212059280100592801005928010059280100A1
S2140121305928010059280100592801005928010091
S21401214010B5054C237833B9044B13B1044800E0AD
S21401215000BF0123237010BD980E00200000000070
S21401216004CE030008B5034B1BB10349034800E046
S21401217000BF08BD000000009C0E002004CE030036
S214012180A3F5803A704700BF174B002B08BF134BCF
S2140121909D46FFF7F5FF00218B460F461348144A6C
S2140121A0121A25F01EFE0E4B002B00D098470D4B41
S2140121B0002B00D098470020002104000D000D4898
S2140121C0002802D00C4800E000BF25F09FFD20004B
S2140121D0290000F045F925F085FD00BF0000080044
S2140121E00000000000000000C00A0020980E002039
S2140121F058260020000000000000000070B5314D98
S21401220092B008AC0FCD0FC40FCD0FC495E80300F4
S21401221001250026032384E803002B4C29462A20A7
S214012220CDE90366CDE905668DF80E3007968DF883
S21401223008508DF809608DF80A608DF80B6000F083
S214012240C1FE29463A2000F0BDFE204601F018FEE8
S21401225002214FF4B06001F00FFA02233246204605
S2140122601A498DF8173001F083FE40F2BA43324620
S2140122708DF819000B930090334620461449ADF8AB
S214012280225001F08FFE90238DF8093091230A9099
S21401229008AA204605A98DF8083001F0A9FE02AA71
S2140122A0204603A901F0ABFD0A4BD3F824232A43A9
S2140122B0C3F82423D3F8242342F48032C3F824231A
S2140122C012B070BD688003000040005A002D310135
S2140122D08096980000C003500B4B1B68C3F307435E
S2140122E0012B0ED1094B04205A6E4FF48023084966
S2140122F0520358BF074A4B6601F51041086258BFA2
S2140123005366FFF77BBF00BF0080E00F00800050E0
S2140123100090005000A000507047000010B5036800
S214012320494A23F47F4323F007039342044688B0C7
S2140123304ED002F58022934257D0444A934265D14B
S2140123400DF10F0104A818F0C7F9014600B1FEE728
S2140123509DF8153008228DF818309DF8143012209B
S2140123608DF819309DF813308DF81A30FF238DF84B
S2140123701B30FE238DF81C309DF812308DF81D3071
S2140123809DF811308DF81E309DF810308DF81F30F5
S21401239006AB18F049F900B1FEE72D4C204618F0BF
S2140123A0CFF800B1FEE70221207818F003F90346C2
S2140123B000B1FEE7A02200901146207818F0D8F868
S2140123C000B1FEE70221207818F008F9F0B1FEE727
S2140123D01F4C0221207818F0EDF800B1FEE702212B
S2140123E0207818F0FBF888B1FEE7B0F80530152B19
S2140123F00ED0172B16D00022134604A9CDE90021D2
S2140124000022B4F80510207918F024F908B010BDA0
S214012410104A1378591C11708DF80F300DF10F0208
S2140124200123EAE701230C4AD360536903F4A0733E
S214012430B3F5807FF9D1084906A801F055FF069B40
S214012440064A13600423D8E7A0000601A000010095
S214012450C00A0020B40E00200040005AB80E00202A
S21401246008B503F048FBFFF737FF03F051FBFFF712
S21401247053FF02F033FDF8E707F012BB03F08ABB07
S21401248010B5044600F0CEF82046FFF747FF10BD12
S2140124900120704700B5C3B007F024FA07F04DFAE3
S2140124A048B1FFF7F5FF30B101A818F042F810B9AE
S2140124B001A8FFF7E5FF43B05DF804FB00F0E0B8C4
S2140124C008B50321802001F0D7F803214FF480607E
S2140124D001F0D2F803214FF4906001F0CDF8082105
S2140124E04FF4C06001F0C8F808214FF4F06001F025
S2140124F0C3F808213E2001F0BFF808212D2001F085
S214012500BBF8002008BD000008B5184B1B68C3F3D4
S2140125100743012B0ED1164B04205A6E4FF480232D
S2140125201449520358BF144A4B6601F5104108621C
S21401253058BF536602F0A8F900F0B6F802F030F979
S21401254002F0C0F902F04EF902F082F902F086F9C3
S214012550FFF7B6FF02F034F900F09BF800F03EFA00
S21401256000F000FBBDE8084002F0C8BB0080E00FA9
S214012570008000500090005000A0005008B500F008
S21401258073FABDE8084000F0C3B808B500F076F865
S21401259003F000F802F098F905F074FE02F06AFA0A
S2140125A004F052FBBDE8084006F072B808B502F028
S2140125B0CFF802F0DDF8BDE80840FFF75FBF7047CF
S2140125C070477047FFF766BF7047012070470120CC
S2140125D0704710B507F0F2F90446FFF7F6FF00283A
S2140125E014BF2046002010BD38B502F079FD044620
S2140125F007F0F2F9042810D002284FF0000508BFB2
S2140126000124FFF7E4FF042809D0022808BF0124AB
S214012610002D18BF0024204638BD0125F1E700240F
S214012620F9E700000368134A23F47F4323F0070306
S214012630934210B5044615D002F18272934218D126
S214012640B0F805101C2914D101220B4B00791A7021
S214012650002218F029F800B1FEE7207917F0D2FF22
S21401266038B1FEE7044B1B781BB1BDE8104003F000
S21401267083BA10BDA0000601BC0E00200F207047D3
S214012680042208B511460023012001F039FB002081
S21401269008BD08B501213A2000F094FCFFF70EFFB3
S2140126A0BDE8084000F046B801213A2000F08ABC97
S2140126B070B50024064625465B21082000F030FA56
S2140126C0102C04F1010300D170BD012B14D0022B94
S2140126D014D0032B14D0042B14D0052B04D16A1C60
S2140126E02946D5B21C46E8E70D3C012C0CD9102B27
S2140126F00CD0B21FD15CF5E70C21F3E7D121F1E74D
S2140127008021EFE70021EDE75A21EBE75D21E9E7BC
S21401271007B5082000F0F8F902238DF80030044BC5
S21401272068460193FFF7C4FF03B05DF804FB00BFE2
S214012730006A18102DE9F047434D88B001AC0FCD63
S2140127400FC495E80700012584E8070001213A2017
S21401275000F038FCDFF8FC800121282000F032FC74
S2140127603A4B404601A903938DF8125001F0A8FE9A
S2140127702B4604220021022001F0C2FA2A462946ED
S2140127800023022001F0BCFA02212B46084604224F
S21401279001F0B6FA04222B461146002001F0B0FAE9
S2140127A04FF002132A4C0226C4F83036A3F58033C4
S2140127B0C4F82C361C231027C4F8346604F5005AD6
S2140127C0C4F81C364FF4487003F0AEF904F580598E
S2140127D01420CAF8107003F0A7F92320C9F8107066
S2140127E003F0A2F9B9214046CAF8107001F0C8FEFC
S2140127F0002330461A461946C9F8107001F080FACF
S214012800002329461A46304601F07AFA2B4631460D
S2140128103046002201F074FA00222B4610460421AD
S21401282001F06EFA404601F01DFE00212820C4F892
S2140128303016C4F82C16C4F83416C4F81C1600F06A
S214012840C1FB08B0BDE8F0870C83030000127A00D4
S21401285000C0035000C00550FEE7000008B500F0B8
S2140128602DF8124B12498B4212D30020114B1249FC
S2140128708B4218D3FFF788FC186850F82240586836
S21401288040F82240013298688242F5D30C33EAE7D9
S2140128900022F8E71C6844F8220001325C68A24274
S2140128A0F8D30833E4E70022F8E700BF0CCE0300B4
S2140128B018CE030018CE030018CE03004FF40041D3
S2140128C04FF0FF30124B134A10B59A60D3F88820A8
S2140128D042F47002C3F888200F4A916601F18841DC
S2140128E001F5005210664FF6DF7050660220C3F8FD
S2140128F0D000BFF34F8FBFF36F8F08244FF44033E0
S2140129000648C0F88041D36004600B6110BD00BF6B
S21401291000ED00E0002001000090005000E100E022
S214012920014B1868704700BF140B0020084B1B6F43
S21401293003F00703022B04D0032B05D0012B05D08F
S214012940FEE7044B18687047034BFBE703487047E4
S21401295000800050140B0020180B0020002D3101C0
S21401296008B5FFF7E3FF054B1B6FC3F303330133D2
S214012970B0FBF3F0024B186008BD00BF00800050AA
S214012980100B00200048704700B4C404014B1868BF
S214012990704700BF180B0020054B1860054B1B6FD6
S2140129A003F00703032B01D1FFF7DABF704700BF1F
S2140129B0180B002000800050002070470048704728
S2140129C0002D31014FF4004070474FF47A70704784
S2140129D0014B1868704700BF1C0B00200020836A5B
S2140129E010B5B3F5903F0AD2064C227812F0FD0FCF
S2140129F004D1DB69984708B90123237010BD4FF451
S214012A008170FBE7BD0E00204FF00053074A1A60A5
S214012A10BFF34F8F0649074BCA6802F4E0621343BF
S214012A20CB60BFF34F8F00BFFDE700BF02020FF080
S214012A3000ED00E00400FA05002303607047036818
S214012A400B6001607047000005490A6813180548C5
S214012A5083428CBF4FF0FF320B601046704700BFB9
S214012A60200B00200080002008B501213A2000F04C
S214012A70A9FA032101230422002001F041F90020D4
S214012A8001F03DF90122194B4FF46070C3F844245C
S214012A9000F0BAFA164B00F5D520D3F8F02000F274
S214012AA0FC4042F00102C3F8F020D3F8FC2042F0CB
S214012AB08072C3F8FC200F4AA3F55D431A600E4BE3
S214012AC00222B0FBF3F00D4B01381861C3F8F02079
S214012AD04FF48072C3F804234FF06043084A002085
S214012AE0C3F8B02F074AC3F8802E08BD00D00350A4
S214012AF000ED00E0FF030040F8590D00000004E07F
S214012B0055CEACC5090001004FF060420123D2F852
S214012B10001E03FA00F00843C2F8000E00207047BA
S214012B204FF06043D3F8802E30B5D20715D5012477
S214012B300B4D8440D5F8FC2042F08072C5F8FC208D
S214012B40D3F8002E2243C3F8002E53F82020002A83
S214012B50F0D003F82010002030BD1120FCE700BFA4
S214012B6000ED00E0024B1968024B18681DF04EBAE2
S214012B70280B0020240B00207047000037B5920078
S214012B8004460D46019225F067FA431C0BD060B946
S214012B9029462046019A25F0EDF80028044808BF8A
S214012BA0002003B030BD0348FBE70348F9E700BF48
S214012BB010E000F021E000F024E000F013B5044638
S214012BC001A801F02DFC9DF80630012223804FF468
S214012BD0807300206380054B9B680A3303F01F0354
S214012BE002FA03F3636002B010BD00BF0080E00F7D
S214012BF001F092BB08B501F07FFB002008BD10B5BF
S214012C00044644EA010313F00303084609D193423C
S214012C1001D1002010BD54F8231040F823100133D1
S214012C20F5E72146920025F0B5F8F2E710B504461F
S214012C3025F00AFA431C15D0B0B90C4B20469B6808
S214012C400A3303F01F020123934023F003032344B6
S214012C50984201D1002010BD50F8042B0132F7D064
S214012C600348F8E70348F6E70348F4E70080E00F77
S214012C700EE000F021E000F024E000F008B500F0DE
S214012C8089FE014B186008BD50150020014B1868DD
S214012C9000F084BE501500200A460139014401F0B7
S214012CA045BF0000044BD3F88420D206FBD4D3F8EA
S214012CB08400C0F3811070470040005038B5104BB7
S214012CC00546D3F820310C4603F00303022B0BD044
S214012CD0032B0DD0012B0FD1FFF722FE052305B1E3
S214012CE0286004B1236038BDFFF750FE0323F6E7E2
S214012CF0FFF764FE0223F2E700231846EFE700BF62
S214012D000080005073B50D4600210E4B0191D3F89B
S214012D108041064604F00304012C09D0022C0CD095
S214012D200C460EB1019B336005B12C6002B070BD3C
S214012D3001A8FFF7C3FF0F24F3E7FFF73FFE01905B
S214012D40EFE700BF0080005038B5174B0546D3F8B3
S214012D5024310C4603F00703013B052B20D8DFE89E
S214012D6003F0030F171B0B13FFF7DAFD052305B15D
S214012D70286004B1236038BDFFF7D2FD0623F6E7CD
S214012D80FFF704FE0323F2E7FFF700FE0423EEE756
S214012D90FFF714FE0223EAE7FFF70EFE0723E6E736
S214012DA000231846E3E700BF0080005038B5104BFB
S214012DB00546D3F840310C4603F00303022B0BD033
S214012DC0032B0DD0012B0FD1FFF7FCFD092305B115
S214012DD0286004B1236038BDFFF7FAFD0823F6E743
S214012DE0FFF7F3FD0B23F2E700231846EFE700BFDA
S214012DF00080005038B5134B0546D3F800320C4618
S214012E0003F00703013B032B18D8DFE803F0020A9F
S214012E100E12FFF7D7FD092305B1286004B1236020
S214012E2038BDFFF7D5FD0823F6E7FFF7CEFD0B23E8
S214012E30F2E7FFF795FD0E23800AEDE7002318461B
S214012E40EAE700BF0080005038B5104B0546D3F8BE
S214012E5040320C4603F00303022B0BD0032B0DD09C
S214012E60012B0FD1FFF7AEFD092305B1286004B190
S214012E70236038BDFFF7ACFD0823F6E7FFF7A5FD95
S214012E800B23F2E700231846EFE700BF008000504F
S214012E9038B5104B0546D3F860310C4603F00303F2
S214012EA0022B0BD0032B0DD0012B0FD1FFF78AFD80
S214012EB0092305B1286004B1236038BDFFF788FDFA
S214012EC00823F6E7FFF781FD0B23F2E700231846F8
S214012ED0EFE700BF0080005010B40D4C0B46D4F84D
S214012EE0204204F00304012C0AD0022C0CD008B1B5
S214012EF0002101600BB100221A605DF8044B704797
S214012F005DF8044BFFF7DABE5DF8044BFFF74EBFE2
S214012F1000800050B0F5207F1FD009D8B0F5007FA3
S214012F2015D003D868B1B0F5C07F0AD000200CE0F8
S214012F30B0F5607FFAD10B4BD3F88000C0F30110D7
S214012F4003E0084B186FC0F3033001307047054BA0
S214012F50D3F89000C0F30460F7E7024B186FC0F394
S214012F608020F2E7008000504FF400320E4B0146FD
S214012F7010B500209A66FFF7CDFF41F6713248433F
S214012F800A490B4B88428CBF4FF480100020DC6945
S214012F90DA639A6822F4401202439A60E20344BF5D
S214012FA00022DA6310BD00BF00900050005A620292
S214012FB00000035008B5FFF7E5FCBDE80840002116
S214012FC0FFF7D2BF420910B510D0012A10D00B4B23
S214012FD00B4C022A18BF234600F01F0051B103F51F
S214012FE08053012202FA00F0186010BD1346F3E781
S214012FF0044BF1E703F50053F3E700BF6880005088
S21401300060820050648000501FB50023802804466B
S214013010019371D02AD8002872D0A0F12004412C47
S21401302032D8412C30D8DFE804F06B6E6B6E7D7DB4
S2140130307D7D6E6E873C9D623C6E6E6E2F2F2F2FB0
S2140130402F2F82546E6E6EA7A26E2F2F2F2F2F2F2B
S2140130502F2F2F2F2F2F2F6B2F6B6B6B7D2F2F2F3C
S2140130602F2F2F2F2F2F2F2F2F2F6B6BB0F5806F1A
S21401307058D021D8B0F5007F4FD008D8B0F5807F62
S2140130805FD0B0F5C07F3BD0019804B010BDB0F55D
S214013090607F42D0F8D8B0F5207F34D0B0F5407FBD
S2140130A0F2D1FFF75DFC02464FF42070FFF732FFC6
S2140130B0B2FBF0F0400821E0B0F5C06F52D00DD859
S2140130C0B0F5A06F33D0B0F5B06F35D0B0F5906FD6
S2140130D0DAD1002101A8FFF737FED5E7B0F5E06F9A
S2140130E045D0B0F5F06F47D0B0F5D06FCCD1002108
S2140130F001A8FFF77FFEC7E7FFF718FC0190C3E7BB
S214013100FFF72EFCFAE7FFF72BFC02464FF4207080
S214013110FFF700FFB2FBF0F0F0E7FFF707FC02460F
S2140131202046F5E7002101A8FFF7C8FDACE700211E
S21401313001A8FFF7D1FEA7E7002101A8FFF7E2FDEE
S214013140A2E702934FF0E0231B695B0705D5FFF763
S21401315007FC0290029B019396E703A902A8FFF7DA
S21401316025FEF7E7002101A8FFF720FE8CE70021E6
S21401317001A8FFF769FE87E7002101A8FFF788FE8F
S21401318082E7000008B58020FFF73EFF034B984218
S2140131909EBF4FF48032024B1A6708BD005A620286
S2140131A000A000501FB50023B0F5807F019377D0B3
S2140131B028D8382800F094800BD82438092810D84D
S2140131C009280ED8DFE800F0676767670D0D620D06
S2140131D0377D52285FD008D83D283BD03E2800F0E6
S2140131E08480019805B05DF804FB8028F9D1414B35
S2140131F01B6F03F00703013B032BF2D8DFE803F054
S21401320044413F6CB0F5D06F5BD019D8B0F5A06FD4
S21401321066D00AD8B0F5806F3DD0B0F5906FE0D19A
S214013220002001A9FFF790FDDBE7B0F5B06F2DD0C8
S214013230B0F5C06FD5D1002001A9FFF7B7FDD0E7E3
S214013240B0F5006FECD00AD8B0F5E06F4DD0B0F510
S214013250F06FC6D1002001A9FFF71AFEC1E7B0F54D
S214013260086FBED1234BD3F8003103F00303022BC2
S2140132702CD0032B2ED0012B30D1FFF787FB032355
S21401328000E005230193ACE70223FBE7002001A938
S214013290FFF738FDA5E7002001A9FFF70FFDA0E71E
S2140132A002934FF0E0231B695B0705D5FFF758FB38
S2140132B00C230393039BE5E703A902A8FFF776FD1A
S2140132C0F8E7002001A9FFF795FD8AE7FFF780FBE5
S2140132D00823D7E7FFF770FB0723D3E70123D1E7DE
S2140132E0002001A9FFF7F8FD7BE7002001A9FFF701
S2140132F0ABFD76E70080005008B5FFF753FF0828BE
S21401330011D00938012811D84FF40012094B4FF695
S214013310FF705A6603F5D8335B6A13F0010F18BFC6
S2140133204FF4FA7008BD044B1888FBE74FF6FF70A0
S214013330F8E700BF00900050480B002070B5044627
S2140133408020FFF72FFF032800F082804FF4002231
S214013350444B02215A6645F60E03434AC2F88030B2
S214013360424B9962012103F580539962936DD9030B
S214013370FCD4D4E900131B0543EA0163E17B94F80E
S21401338022500B43217B94F8236043EA0143617B7F
S21401339043EA0133A17B43EA811313619169D4E9BE
S2140133A004031B0643EA806301F000410B43A17E40
S2140133B0E07E0B43217E43EA0143617E43EA01231B
S2140133C09361E369126A002B0CBF0021082122F0E9
S2140133D00D0242EA030242EA8002234B42EA01025C
S2140133E01A6294F820204FEA421232D1986A94F871
S2140133F0211020F0330042EA0112024342F001029A
S2140134009A621B4A996D32EA0101FBD102221749E1
S2140134108A621A659A6D5200FCD41869A26820F473
S214013420700040EA02504FF0004218610F4B9A615B
S2140134301DB9022203F580539A6216B901220D4B7B
S2140134409A6294F824301BB1074B0B4AC3F88020CC
S21401345070BD996A21F0330131430A4342EA4502BD
S214013460EEE700BF0090005000C0005000D00050B2
S2140134700300014000E00050F1A7FFFF014B93F964
S2140134800000704704160020F0B5D0E901434FF460
S21401349080061A4A4178057856664FF4D1560227B7
S2140134A002F5B8325662164E4F2977604FF0010783
S2140134B028BF4F2106F5805677601669F603FCD4BF
S2140134C041EA052151611B01417B43EA04230B4379
S2140134D0017B43EA41039360C37B817B1B0143EA83
S2140134E04113417C0B43017C43EA41035360837CD7
S2140134F013B16FF4D1535362F0BD00BF009000507A
S21401350000100250014B1880704700BF480B002086
S2140135104FF4001208B5184B5A660223174A536037
S214013520936813F48033FBD1012822D1FFF72EFADA
S214013530134B984215D003F5122303F5F86398420E
S21401354013D0104B00EB8002400AB3FBF0F0520A96
S2140135500A4BDA62012218635A620022074B5A604C
S21401356008BD45F67A10084AF2E745F61A00074AFA
S214013570EEE75362F1E700BF0090005000400250B2
S21401358000F0490264666666D8B80500BBCF050040
S2140135900029CCBF01210021FFF7E6BCB0F5207F52
S2140135A010B50C4642D008D8B0F5007F33D003D80A
S2140135B088B1B0F5C07F0ED010BDB0F5607FFBD1ED
S2140135C01F4B013CD3F8801021F0300141EA04146E
S2140135D0C3F88040F0E7FFF7EDFC00F035F84FF454
S2140135E08031184A164B1167196F013C21F470415E
S2140135F041EA04341C67FFF7B3F90446FFF752FBB0
S214013600C0F102012046FFF7C3FF00F023F8BDE832
S2140136101040FFF7B7BD0A4B013CD3F8901021F0DC
S214013620F85141EA0464C3F89040C5E7044B013CF5
S214013630196F21F4806141EA84241C67BCE700BF4E
S214013640008000500090005002214FF42070FFF7D8
S214013650A5BF000008B54FF4C070FFF7D5FCBDE864
S2140136600840044988428CBF022101214FF4207092
S214013670FFF794BF80F0FA02B0F5807F70B50C4674
S21401368000F0F88029D8382800F04B8110D824386B
S214013690092816D8092814D8DFE810F0DC00DC0069
S2140136A0DC00DC0013001300CD00130047003301DB
S2140136B0522800F0CF8005D83D2851D03E2800F092
S2140136C0418170BD8028FCD18B1E052B00F2B08095
S2140136D0DFE803F0AB99AE69AEA8B0F5D06F00F0A5
S2140136E0108132D8B0F5A06F00F01B8116D8B0F566
S2140136F0806F00F0AF80B0F5906FE2D1023C052CF0
S2140137008CBF0021974B984A98BF195DD2F8243197
S21401371023F007030B43C2F82431D2E7B0F5B06FAC
S21401372000F08980B0F5C06FCBD1083C032C8CBF6C
S21401373000218E4B8C4A98BF195DD2F8403123F098
S21401374003030B43C2F84031BBE7B0F5006FD5D099
S21401375016D8B0F5E06F00F0F580B0F5F06FB0D197
S214013760083C032C8CBF0021814B7F4A98BF195D12
S214013770D2F8603123F003030B43C2F86031A0E7AF
S214013780B0F5086F9DD1CC1E052C8CBF0021794B5E
S214013790754A98BF195DD2F8003123F003030B4335
S2140137A0C2F800318DE7002502260121022000F033
S2140137B0B9F9FFF7FFFBFFF747FF4FF480316E4B78
S2140137C0694A1967136F23F0070333431367FFF73B
S2140137D0C7F80646FFF766FAC0F102013046FFF762
S2140137E0D7FE0121002000F0DDF9FFF733FFFFF7D8
S2140137F0C9FC002D7FF465AF032C7FF462AF012274
S2140138005E4B9A625DE74FF400225B4B0E465A66AA
S214013810012203F540539D6A03F58053C5F3400525
S2140138209A62C2E700250426BFE700250126BCE709
S21401383000252E46B9E7022C03D0A4F10F0044421E
S2140138404441494BD3F8801121F003010C43C3F8DE
S214013850804136E7023C032C8CBF0021484B424A8C
S21401386098BF195DD2F8203123F003030B43C2F849
S214013870203126E7A1F10804082C3FF622AF01A368
S21401388053F824F0A9380100A9380100C336010015
S214013890A9380100D7380100C3360100C33601003C
S2140138A0C3360100A93801004FF480322E4B35494A
S2140138B0586E03F580535A660B6A43F001030B6298
S2140138C0C1035CBF304B5A664FF0E022136923F008
S2140138D004031361F5E64FF48032234B2949586EF1
S2140138E003F580535A660B6A23F001030B62C30388
S2140138F05CBF254B5A664FF0E022136943F0040380
S214013900E7E7083C062C8CBF0021204B164A98BFDF
S214013910195DD2F8003223F007030B43C2F80032D8
S214013920CFE60F2C0CD0102C14BF002102210E4A1A
S214013930D2F8203223F003030B43C2F82032C0E64C
S2140139400121F4E7083C032C8CBF0021104B064AEA
S21401395098BF195DD2F8403223F003030B43C2F837
S2140139604032AEE6A483030000800050A08303002B
S214013970A0830300B18303000090005000E00050D4
S2140139809C83030000C0075000A00050AA830300D8
S214013990A0830300EFF3108072B6704700B962B6D9
S2140139A07047EFF31180302383F31188704780F35B
S2140139B011887047194B10B51B6873B3184A5268C3
S2140139C0012A2AD0174A8020C2F80031FFF7EAFB05
S2140139D005281FD14FF4C070FFF79CFA0128044652
S2140139E004D102214FF4C070FFF7D8FD07220E4B19
S2140139F01A610122A3F580535A60094A1369DB074D
S214013A00FCD5012C09D12146BDE810404FF4C07009
S214013A10FFF7C4BD0122054B5A6010BD08160020F1
S214013A2000C001500080005000E0015000D001505D
S214013A3000224FF40031074B1A60074A516602F51F
S214013A4098325268012A02BF044AD2F800211A604D
S214013A50704700BF081600200090005000800050FC
S214013A60044A4178536F23F4407343EA01235367B2
S214013A70704700BF004000507047704710B50446BD
S214013A8008B1FFF7D5FF0E4A136943F0040313612B
S214013A9001F0FCFBFFF7F0FFFFF77CFF24F0CCFA08
S214013AA0FFF77CFFFFF7E9FF01F004FC1CB1BDE85E
S214013AB01040FFF77FBFBDE81040FEF751BF00BFC3
S214013AC000ED00E010B5044608B1FFF7B1FF0C4A5F
S214013AD0136943F00403136101F0D8FBFFF75AFFA3
S214013AE024F0AAFAFFF75AFF01F0E4FB1CB1BDE887
S214013AF01040FFF75FBFBDE81040FEF731BF00BFC3
S214013B0000ED00E0FFF794BFFFF754BF034A0179C9
S214013B10D36E23F030030B43D3667047004000504A
S214013B2070470000F8B504461C4BD3F88420D10634
S214013B30FBD4D3F88430C3F381139C422CD0FEF718
S214013B40F5FE012C064602D12146FFF721FDFFF7BF
S214013B5021FF4FF00072124B07465A662046FFF7C8
S214013B60DFFF4FF480630D4D621E93402B676B6E33
S214013B709A0103D4D5F884309B060AD53846FFF758
S214013B800DFF022C08D13046BDE8F8400021FFF7B2
S214013B90FFBCD5F88430EAE7F8BD00BF004000500E
S214013BA00060005007B518B90191FEF7BFFE0199F4
S214013BB0064B1B7843B1064B984205D8012003B04B
S214013BC05DF804EBFFF7AEBF0220F8E70C16002005
S214013BD0005A62020278034B012100201A70FFF797
S214013BE0E1BF00BF0C1600204FF0004210B50124C3
S214013BF04AF6CD31154B5A66154A03F50B23546028
S214013C005A6C1964224088B9996811F0010F11495C
S214013C1003D08C60D86AC007FCD501234B6012B173
S214013C200D4B0E4A1A641DF034FB10BDD96A090704
S214013C30FCD42021074B59620121A3F580539960DA
S214013C4005494B6A9B06FCD5E9E700BF009000508A
S214013C500050095000600950004009503254FFFFDF
S214013C604FF0004238B5194B194C5A66012203F53C
S214013C700C235A604AF6CD33656C236443781540AD
S214013C8093401343134AD363A368827823F07403E3
S214013C9043EA0213C278002A14BF04220022134307
S214013CA0A3600279837943EA022323614279C379C7
S214013CB043EA022363610078FFF796FF0DB1064BD6
S214013CC023641DF0E6FA012038BD00BF00900050C5
S214013CD000400950004000503254FFFF70B50546C1
S214013CE014460E46FFF756FE296881EA040202EAE8
S214013CF006044C402C60BDE87040FFF74FBE70478D
S214013D00F8B504460D461F4616464AB101238B40B8
S214013D103021194A01FB0022FFB141F21001535034
S214013D2004EB4403072D4FF00F014FEA031317D896
S214013D30A80006FA00F2814010481844FFF7CEFFAB
S214013D4056B9012130230C4801FA05F503FB04009E
S214013D5077B141F21003C550F8BD42F21001DEE71B
S214013D60A5F10800800006FA00F281400448E4E765
S214013D7042F21003EFE700BF00C0035004C0035037
S214013D800CC003504369DB01FCD4012300F500504D
S214013D9043607047022A10B54FF0000405D9033A74
S214013DA0022A0CD90360047110BD11F4000218BF79
S214013DB04FF07F4221F07F4313430C0EF2E721F0D0
S214013DC0FF03CCB2EEE730B4012500F5805344681A
S214013DD05D608B780D88C9781B04002914BF4FF4E9
S214013DE00031002103F480332B430B43C0F8983095
S214013DF0E30702D430BCFFF7C5BF30BC704738B507
S214013E000C460546FFF7BEFF2378114603F007026E
S214013E106378002BA37818BF08204FEA031303F03A
S214013E20300343EA0203E27808BF0020002A14BFE9
S214013E304FF480720022034313432B672379607982
S214013E40EA6A1B02000300F4805003F4E06322F4E4
S214013E508B32034322F480721343A2792846002A48
S214013E6014BF4FF4803200221343EB62FFF7ABFF1F
S214013E70012305F580525360E27902B1EB6038BD4B
S214013E8001210246F8B500F580535960274B2849B1
S214013E90C36053690B40FCD19361C2F898305369F3
S214013EA013F4401FFBD15369D9052DD4936F5BBB27
S214013EB053699B052AD4D2F8881039BB1046D36FB4
S214013EC0D2F88C30FFF75EFF30231A4891608242A9
S214013ED00CBF02200020116142F26005D1620F463C
S214013EE011621367C2F880300B46134E834210D11D
S214013EF00020104B9A4201D1102911D10F4B02F527
S214013F00005253629362F8BD536FCCE7D2F8843007
S214013F10CEE702EB0314A564013326656765E5E782
S214013F2001F1280442F824000131E3E712000200FF
S214013F30520001000040005A00C002808F330F80FB
S214013F40084608B529B92A20FFF75EF8012838BFC8
S214013F500120064900F5742000F23F20B0FBF1F085
S214013F6001387F2828BF7F20C0B208BD40420F001D
S214013F7010B50B4C8C4228BF0C461AB92A20FFF705
S214013F8043F80246601E0244B2FBF4F0A24228BF88
S214013F9000F1FF30032828BF0320C0B210BD00BFC8
S214013FA0005A620210B51048104C002B18BF20466C
S214013FB0884228BF084604461AB92A20FFF724F883
S214013FC002469DF808000130B2FBF0F2601E024482
S214013FD0B2FBF4F340F2FF30A24228BF03F1FF33F5
S214013FE0984228BF184610BD80969800404B4C005A
S214013FF02DE9F04F2DED048B0C4687B0AF491546E1
S21401400000220746FFF7B4FF6379984238BF184687
S2140140105FFA80F93846FFF7B5FE217919B93846B7
S214014020FFF78EFF0146E3784FEA09721B0102F0A3
S214014030E04203F0300313430804227800F4FE0044
S21401404003430AB143F0020362780AB143F0040362
S214014050A2780AB143F008034FF00008BB60E3887A
S21401406022893B616389DFF860A243EA02433B622F
S214014070574502D1B8F1020F08D1012307F5805741
S2140140807B6007B0BDEC048BBDE8F08F00222C7876
S2140140908B488C49AE68944218BF014623468A482D
S2140140A0CDF80090FFF77EFFB6B28642334638BFA2
S2140140B0034607EB081103938B6C04F0030623F009
S2140140C0435323F41D1323F4405323F01F033343B8
S2140140D06E78EA78B60006F01C061E43AB784FEA07
S2140140E008101B0303F4E0433343160406F4E026EA
S2140140F033432E7C760506F4600633432E79360765
S21401410006F0405633438B648B6C7049C3F302331D
S214014110013B042B00F28580DFE803F083838303F1
S2140141200300D1F8843108F1050B002C6FD10AEB9E
S21401413000039C6CC4F30234631E012B634B73D8DB
S214014140DFED637AD3F88041A4B223044FF0010374
S2140141505044806C24F4C046C0F3820000F1010E86
S21401416003FA0EFE07EE10EA4FEA8646B8EEC79A45
S214014170F6EE008A554B48BF46F00046002871D13E
S214014180D3F88C311BB208EE103AB8EEC88A37EE77
S214014190888A002A7BD105A800F042F9DFED4D7A26
S2140141A0DFED4D6A86EE897ADFED4C6A67EE887A36
S2140141B027EE267AF1EE006AB6F1004F07EEA67AF0
S2140141C00BD0DFED476A07EE904A37EE266AFAEE25
S2140141D0E87AB0EE667A17EE867AB5EEC07AF1EE38
S2140141E010FACABFB1EE477A38EEC77A37EE687A68
S2140141F0FDEEC77A17EE903AB3F5003F54DB6FEA4F
S21401420056466FEA46464FEA0B134AF80360039B8D
S2140142100AEB0B11C3F309024A6008F101081435D1
S21401422026E7D1F880317EE7032C0AD1D3F8804106
S214014230D3F88C31240C1B1407EE903AF8EEE77A8B
S21401424083E7042CD3F884410BBFD3F88C31D3F821
S2140142508C311B141B1407BFA4B25B00240C03EBA8
S2140142604303E9E7D3F89001D3F8883100B207EEAB
S214014270100AB8EEC77A77EE677A29EE287A1BB26B
S21401428087EE878A07EE903AF8EEE77A7FE7D5ED74
S214014290037ADFED146AF8EE677A87EEA67AF7EE10
S2140142A0046AC6EE877A7BE713F5003FAABFC3F31D
S2140142B0110346F400361E43A5E700BF005A62020A
S2140142C0404B4C00809698000040005A0080E00F5A
S2140142D0000000003D3B843F000080430000204476
S2140142E00000004900007A4408B50A6F496F02F0E1
S2140142F00702FFF74FFD08BD4FF40032054B9A66E3
S21401430041F6713203F51C33DA63012203F50053DB
S214014310DA6070470090005041F671320121064B79
S214014320DA6303F50052D1600022DA634FF40032FB
S214014330A3F518339A667047000003504FF0B04358
S2140143405A6812B19A6A002AFAD17047CB784A782D
S21401435010B55B010C7843EA82030A79234343EAEA
S21401436002130C22424302F1B0421363012C02BF36
S2140143708A78024B43F8202010BD00BFE880035026
S21401438008B54FF0B0435A6802B960B15B680BB12B
S214014390FFF7D4FF4FF0B04130B10120074B586012
S2140143A0FFF7CCFFC86008BDFFF7C8FF0223CB604C
S2140143B0FFF7C4FF0122024B5A60F4E700100058D1
S2140143C0002000584FF0B0435B6870B50BB1FFF7A3
S2140143D0B5FF0121104B4578596083780679002B8B
S2140143E0C37814BF02240024002B14BF0422002229
S2140143F04379DB0043EA06132B43234313434FF071
S214014400B0429360054B59600378002B14BF0B46EE
S2140144100223D36070BD00BF002000580010005872
S2140144204FF48032064B5A6603F5E6235B69C3F305
S2140144308512827003F03F021B0B427003707047B7
S2140144400090005038B50546144621B94FF4207047
S214014450FEF7DAFD014601396400B1FBF4F1090209
S214014460E96138BD012200F5805310B55A6040F667
S214014470AA6341F20502436100230E498360C365C6
S214014480C26000F500520361C361C36491640A49C6
S2140144908365884202D0094CA04207D18842036551
S2140144A002D0064B984201D1002343650123536095
S2140144B010BD00BFFFFF010000C005500000065000
S2140144C038B50D46FFF7CEFF0122A97B00F58053D4
S2140144D05A602A8A8368002914BF4FF4806100213C
S2140144E042F0010213432A7D0B43002A14BF4FF00A
S2140144F00052002283608368044613438360AB7CCA
S2140145005BB11D4AEB7C90422DD1A2F51032C2F868
S2140145108C31E36D43F08003E3652B7B2046D5E9C0
S214014520011243F48053E360FFF78CFF6B7B0BB102
S214014530102363616B7D1BB1A36843F48033A360D2
S214014540AB7D1BB1A36843F40043A360EB7D2A7ED9
S2140145501B07120503F0E04302F4E0021343A365D0
S2140145602B78636138BD054A904204BFA2F520321C
S214014570C2F89C31CDE700BF00C0055000000650D0
S21401458083695A06FCD5C16383699B06FCD5406ADC
S214014590C0B2704738B50446054D1CF0A0FE0FCCDE
S2140145A00FC594E8030085E80300002038BD00BF6E
S2140145B01016002047F6FF739A42F0B563D0022921
S2140145C063D8334BCF0003EBC10013F83110847866
S2140145D0012913D10025C3781B1B9D4202D3E01885
S2140145E0C0B2F0BD591B4668A3EB510136F9116004
S2140145F09642D4BF0D4601F1FF33EEE7406800282E
S214014600EFD0B0F90010914204DBB0F902109142EC
S214014610B8BF114682883B44FF2A19BFC822282604
S214014620B0F90620B0F90860A2EB01020CBF012523
S214014630002592FBF6F25F782A447B1E934228BF40
S21401464013464FF47A7E00EBC305AE68EA88AC46A3
S21401465011FB02621E4622EAE272013302F5FA7289
S2140146609F42B2FBFEF204D9BCF80CC00835944553
S214014670EBD200EBC6008088904228BF1046A042CD
S21401468038BF2046ACE7FF20ABE70020A9E700BF14
S214014690101600200229F0B553D82B4800EBC104B0
S2140146A010F83110636801290FD1E078A4789042A0
S2140146B094BFC4EB0001C4EB0201001BCAB28242E4
S2140146C0C8BF002233F91200F0BD002B39D0A17803
S2140146D0914202D3B3F90200F6E7E178B3F900009C
S2140146E09142F1D999886478A1F1FF06013C7142A3
S2140146F003F10405E4B2714103F10C071FFA82FCD1
S214014700CEB2B44216D805EBC1014FF47A756A43AE
S214014710B1F902404968521A04EBD47102EB610206
S21401472092FBF4F29042CFDBB3F902009042CBDC6D
S21401473010B2C9E737F831E04E1CE645E3D33146FF
S214014740DEE70248C0E700BF101600200080FFFF2A
S21401475008B50448FFF71EFFBDE8084001201CF01D
S214014760D9BD00BFB8830300004870474A0B00203C
S2140147707FB50222084B0949CDE901234FF00073AA
S214014780CDE90313052301A94FF0FF3005931CF073
S21401479029FE07B05DF804FB006A18000002040059
S2140147A007B56B46054A1068516803C36846FFF7AC
S2140147B057FA002003B05DF804FB00BF3C840300F9
S2140147C013B50024064A6846536F43F00103536746
S2140147D000948DF80440FFF799F9204602B010BD09
S2140147E00040005030B58BB06C46154D0FCD0FC450
S2140147F00FCD0FC495E8030084E80300114BD3F8EE
S2140148004C21120314D4D3F85041E4B28DF8194068
S214014810FEF734FE204480F308008DF818000A489D
S214014820FEF7BAF86846FEF789FD00200BB030BDEA
S214014830064B1C884FF6FF739C4208BF7824E5E7B9
S214014840448403000080E00F00F049020001E00FFD
S21401485008B50120FEF75CFE002008BD30B5094D05
S21401486087B001AC0FCD0FC42B6801A823602523A8
S2140148708DF80530FEF708FE6420FEF743FE0020A3
S21401488007B030BD6C8403006FF00402502110B5F0
S2140148900A480B4C12F0800FD3B21BBF03F00F0374
S2140148A0043BA3181B1802F101020CBF83F8001386
S2140148B01976402AEED1002010BD00BF00ED00E0C1
S2140148C000E100E000F078B838B500F063FE044679
S2140148D0E0B900F05FFF4FF4167343430C4803F54D
S2140148E0742303F23F23B3FBF0F30A4A0A49136029
S2140148F00A220D680948013A12F0FF0240F8043B0B
S214014900F9D103EBC3022B4413440B60204638BD98
S21401491040420F0064160020301600203416002096
S214014920012208B5034B1A7000F028FF024B1860ED
S21401493008BD00BF2C16002060160020F8B5144CE8
S214014940237823B300F01AFF124B134D1B68134E46
S214014950C01A012838BF0120114B124F18602B785E
S21401496056F8232046F82300111A3A680E48521AC0
S2140149700A213A600932B2FBF1F20133DBB202607E
S214014980B3FBF1F201FB12332B7000232370F8BD49
S2140149902C160020601600205C160020341600201D
S2140149A0281600203016002064160020014B1868D7
S2140149B0704700BF6416002020234FF400220A49E6
S2140149C081F82C33094B5A66094A03F5405303F51F
S2140149D00050426702674FF48050C1F88401486076
S2140149E003445A67704700BF00E100E000900050A2
S2140149F0010000A0044B9A6DD20702D40028FAD118
S214014A0070470120704700BF00C000500C4B10B526
S214014A101C6FE20707D5012203F500531A67FFF75B
S214014A208DFF00F06DFB14F000521CBF054B1A679A
S214014A30002CBEBF4FF00042024B1A6710BD00BFEC
S214014A4000C0005000E00050FFF7E0BFBFF35F8FEB
S214014A50074B5A6A22F480325A62D3F8942022F025
S214014A600102C3F89420BFF34F8FBFF36F8F7047D7
S214014A7000ED00E070B52648264CFFF7E7FF8442BC
S214014A8008BF4FF08043244A18BF20F01F03D2F816
S214014A90C01018BF203B21F0FF0141F0A001B3F187
S214014AA0005FC2F8C0100CD31C4D1D4E296843F0A0
S214014AB00103C2F898100131C2F89C60C2F8A03018
S214014AC02960844210D01548164B0268124923F01B
S214014AD01F0343F00303C1F89820C1F89C30124B22
S214014AE00132C1F8A0300260BFF35F8F05220A4B86
S214014AF0C3F894205A6A42F480325A62BFF34F8F49
S214014B00BFF36F8FBFF34F8FBFF36F8F70BD00BFC3
S214014B10B80C0020900E002000ED00E06816002082
S214014B2003000020AF0E0020E1FFFF3F10B5144642
S214014B30FFF78CFF1F2C24D91C4A1D4CD2F8C0301D
S214014B4023F47F4343F48073C2F8C030C2061CBF0F
S214014B5020F01F002030CB06144A236818BF21F02E
S214014B601F0120F01F0021F01F01C2F8983040F00D
S214014B70030041F003010133C2F89C00C2F8A01003
S214014B802360BFF35F8F0522084BC3F894205A6A4F
S214014B9042F480325A62BFF34F8FBFF36F8FBFF379
S214014BA04F8FBFF36F8F002010BD00BF00ED00E0F8
S214014BB068160020BFF34F8F0549064BCA6802F4FA
S214014BC0E0621343CB60BFF34F8F00BFFDE700BF2A
S214014BD000ED00E00400FA0508B5FFF7EBFF08BD9D
S214014BE0034B1B78002B14BF01200220704700BF27
S214014BF09C1600200329F8B598BF124B05460E46B1
S214014C008CBF00245C5C032805D8DFE800F00208AE
S214014C100B0E44F002040C4B1F684FB9F8BD44F06C
S214014C200804F8E744F02004F5E744F08004F2E7CE
S214014C307B681A68144203D0314628465B68984759
S214014C403F68EAE7808403009816002038B5104DC7
S214014C502B78ABB10F4C23781BB100F057FB002328
S214014C602370002000F074FB0B4C50B100F07AFB6F
S214014C700023012120782B70FFF7BCFF012323704E
S214014C8038BD0122054B1A702278054B1A70F7E7DA
S214014C9096160020911600208816002095160020F2
S214014CA0A816002010B5FEF775FE064B04461B78C5
S214014CB01BB1BDE81040FEF771BEFFF7C7FF2046E7
S214014CC0F7E700BF90160020002814BF0121FF213E
S214014CD0074A13780B44137008D0064B1B78012B38
S214014CE004D9054B1B780BB9FFF7B0BF704700BF5F
S214014CF09C160020881600209516002070B5FEF739
S214014D0049FE114E054633788BB900F043FC044644
S214014D1020B12846FEF742FE204670BD0B48FDF73F
S214014D208BFE0B4B1C6000F035FD0A4B186000F043
S214014D302FFA00F04BFB084B00241860012328468D
S214014D403370FEF72BFEE7E7921600209816002038
S214014D50AC160020A41600208C16002000292DE990
S214014D60F34114BF0121FF21254A00F1FF30135CF6
S214014D700B4413543AD0234E3278012A36D9FFF722
S214014D802FFF0128044634D81F4FFEF703FE3B7859
S214014D901BB31E4D2B781BB901222A701C4A1370B7
S214014DA0DFF8708098F8003033B1019000F0AEFA69
S214014DB00023019888F80030FEF7F0FD012000F08E
S214014DC0C7FAFEF7E7FD2B782BB1019000F0CAFA7F
S214014DD0002301982B7000233B70FEF7DFFD30782F
S214014DE0A04203D02146FFF705FF347002B0BDE8AC
S214014DF0F081032AF3D10228F1D100F001FBEEE79E
S214014E009C1600208816002096160020901600207A
S214014E10951600209116002010B50446FEF7BAFD3F
S214014E20002C14BF0121FF21064A13780B44DBB284
S214014E301370B3FA83F3BDE81040034A5B0913709D
S214014E40FEF7ACBD9F1600209E16002068B5FEF743
S214014E50A1FD094B06461B78012B04D8FEF79EFDE3
S214014E600025284668BD054B1D6800F0B3FA0544C9
S214014E703046FEF793FDF4E788160020AC160020B6
S214014E8007B5FEF787FD0190FFF7E0FE019803B036
S214014E905DF804EBFEF782BD38B541600446FEF7C7
S214014EA079FD054621460448FDF7C9FD2846BDE8BB
S214014EB03840FEF773BD00BF98160020054B1B68EF
S214014EC05843054B00F5742000F23F20B0FBF3F089
S214014ED0704700BFA416002040420F002DE9FF478F
S214014EE0FEF758FD044600E000BFFDF772FB002800
S214014EF000F09C806D4E6E4F337823B10020FFF793
S214014F00E3FE00233370FFF76BFE0546002800F032
S214014F109580851EEDB2012D40F29880FFF760FE68
S214014F200128804604D9634B1B780BB900F0ACF915
S214014F30614DDFF8A4912878DFF8A0A140450AD09A
S214014F40002389F800309AF8003013B94146FFF77C
S214014F5051FE85F8008099F800303BB12B78022B82
S214014F6004D1002389F800301CF0D2FEB8F1010FFD
S214014F700FD9DFF8408198F8003053B94F4B1B78B2
S214014F8023B900F0BDF901224D4B1A70012388F8B0
S214014F900030287800F004FA9AF8003013B1494B33
S214014FA01B782B7000E000BF2046FEF7F7FCFEF7EB
S214014FB0F1FC454B04461A7852B100221A70414B57
S214014FC028781B78984203D101212970FFF712FE39
S214014FD0384600F019FBFDF707FB804600288BD109
S214014FE0344F89F800003B789BB1DFF8D4908AF8FB
S214014FF0000099F800301BB100F088F989F80080AC
S214015000002000F0A5F9002846D000F0ABF90023F7
S2140150103B70337823B10020FFF756FE0023337030
S21401502000212878FFF7E6FD00232B7000E000BF83
S214015030204604B0BDE8F047FEF7B0BC3378002B3D
S2140150403FF46CAFFFF740FE357067E7002003A919
S21401505000F05CFB054600287FF460AF1B4B039A0B
S2140150601B689A4205D80120FFF72EFE01233370F4
S21401507054E7174BD3F8008000F0ACF9039940448D
S2140150808842F0D20223091ACDE9005338462B464E
S214015090104A00F0E1FA41E7012000F081F92046CC
S2140150A0FEF77CFCFEF776FC0446A9E7A016002076
S2140150B06C16002096160020881600209F160020E9
S2140150C091160020A8160020941600208C160020A9
S2140150D0AC160020A54C01009E1600209516002057
S2140150E010B5FEF757FC0022044B1C781A70FEF729
S2140150F055FC00F01FFC2043C0B210BD93160020E3
S21401510010B5094B1B786BB1084C237853B100F0EE
S21401511029F90023064A237013700123054A1370E8
S214015120054A137010BD00BF881600209516002092
S2140151309616002093160020941600207047000053
S21401514073B5114E04463378834212D000238DF88E
S214015150043080B102238DF8053001A8FEF780FCEB
S2140151600A4D402054B1FFF7A9FE2B68181A286093
S214015170347002B070BD8DF80500EEE7FFF79EFEB5
S2140151802B681844F3E700BF500B0020B816002028
S21401519073B5002401A88DF80440FEF71BFD2046D8
S2140151A04FF40024FFF7CCFF3149324B0A6F02F06F
S2140151B007021A60D1F82031D1F8240101F5805197
S2140151C04C664FF400344C6601F598318969032A20
S2140151D000F0070001F0020141D003F003039C1E1A
S2140151E063426341022808BF43F001032248234D6E
S2140151F0037061B31E4A3BB9D2F8003103F00303D2
S214015200591E4B424B410370D2F8003103F00303A1
S214015210022B26D0032B27D0012B18D1FDF7B6FB86
S214015220A8B1174B411EDC68002302460846194602
S214015230C4F30B04134E013404EB8404E4FB0601AF
S21401524022F0B8FBFFF73AFE2B681844286064206A
S214015250FFF734FE2B681844286002B070BD0123A6
S214015260C0E7FDF7B5FBDBE7FDF7A6FBD8E700BF18
S21401527000800050B0160020B6160020B816002098
S21401528000C0015040420F00FEF73CBC074B1A78A5
S21401529052B100221A70064A136F23F0070343F037
S2140152A001031367FDF75CBB704700BFB41600200F
S2140152B0008000500E4B10B51B7883B1022000F021
S2140152C0EDFB60B100F054FA48B10A4B9A6DD20377
S2140152D006D5DB6D9B0703D50122074B9A6210BDED
S2140152E00124064B1C70FFF71BFB034B9C62F6E781
S2140152F0B616002000C0005000D00050B5160020A1
S2140153000122014B1A707047B416002038B50C4BB9
S2140153101B786BB10B4C23787BB90B4B0B4D9A6DFD
S21401532012F4803F05D0DB6D9B0702D50123AB62EB
S21401533038BDFFF7F5FA0123AB6200232370F7E7C8
S214015340B6160020B516002000C0005000D0005050
S214015350034B1B780BB1FFF74DBB0120704700BF15
S214015360B616002008B5FEF7CFFB094A0949136FA8
S214015370096823F007030B431367074B1B7813B128
S2140153800122064B9A62BDE80840FDF7E9BA00BF64
S21401539000800050B0160020B616002000E0005035
S2140153A002280AD003280BD001280CD1064A13691B
S2140153B023F00403136130BF70470020FEF75EBB85
S2140153C00020FEF77FBB704700ED00E04FF4C87089
S2140153D0FFF774BD08B5054B187818B1FFF7E6FA64
S2140153E000EBD000024B1B68184408BDB61600201F
S2140153F0B81600200122014B1A707047B61600201D
S2140154007047000010B500F0E3FA0A4C0A4B196821
S2140154102368C31A01B10BB9206010BD4A699A42CC
S2140154203ABF9B1A0022D21A4A6128BF0023896814
S214015430F0E700BFC0160020D4160020C38870B560
S21401544004460D463BB9FFF701FD8542064602D2EA
S214015450FFF716FD35460F4965610B68ABB90C6061
S214015460A36011E0AD1A9A68184665612AB1134621
S2140154705A69AA42F6D950B11A4613468460A36007
S21401548013B15969491B596170BD0020F0E70C60E2
S214015490F5E700BFD416002038B5134D2B685B69BD
S2140154A093B1124A022014681C4400F0CBFA20463D
S2140154B000F096FA00230E492A680B70D088800700
S2140154C009D501230B7038BD022000F0BBFA02207B
S2140154D000F0DCFAEEE79268002AF4D05069034443
S2140154E0012BEBD9EFE700BFD4160020C016002031
S2140154F0C816002070B516469DF81420C0E903367C
S2140155000271049ABDF8183002600022C3808260DE
S21401551004460D4600F05CFA3044A0613DB9E368EC
S214015520656113B120462168984796B13546FEF766
S21401553031FA0646FFF766FF29462046FFF77EFF4B
S214015540054B1B68A34201D1FFF7A6FF3046FEF7C5
S21401555025FA002070BD00BFD416002000220C4999
S2140155600B687BB183420AD183687AB19360836802
S2140155701BB15A6941690A445A61002070471A46AC
S2140155809B68EEE70028EFD0022070470B60EEE73D
S214015590D416002070B5FEF704FA144E054634788A
S2140155A0FCB9134B1C60134B1C60134B1C8000F0A2
S2140155B0CDF9012000F046FA00F09AFA0F4B0246A8
S2140155C0186020B92846FEF7F2F9232070BD23465D
S2140155D040F2E7310A4822F0EDF90A4B1860012340
S2140155E033702846FEF7E3F90020EFE7BC160020EB
S2140155F0D4160020C0160020CA160020D01600209F
S21401560018FCFFFFC41600202DE9F0410546F8B14D
S214015610FEF7C0F90F4F0646FFF7F4FE2846D7F807
S2140156200080FFF79BFF044628B13046FEF7B6F927
S2140156302046BDE8F081A8453B6803D123B1FFF7BA
S2140156402BFFF2E7002BF0D1022000F007FAECE77F
S2140156502224EDE7D416002070B586B015461E4606
S2140156600446059180B1FFF7CFFFBDF82C3000222C
S21401567002939DF828302046CDE9006305992B4614
S214015680FFF738FF06B070BD2220FBE738B50C46A1
S214015690054698B191B100230B70FEF782F90121FE
S2140156A0074B1B680BB122781AB1FEF780F9002070
S2140156B038BDAB4214BF9B682170F3E72220F7E7A1
S2140156C0D4160020F0B51F46002387B00D461646B7
S2140156D004468DF81730A0B10DF11701FFF7D6FF7C
S2140156E09DF817207AB9BDF83430294602939DF803
S2140156F030302046CDE900733346FFF7FBFE07B096
S214015700F0BD2220FBE70320F9E700002DE9F04178
S21401571007468846FEF745F900260546124B1C68E3
S21401572024B92846FEF743F91B2016E063691E4498
S214015730E388BB4215D100F04BF90C4C2368C01A24
S214015740B0420CD200F044F922683244121A2846BC
S214015750C8F80020FEF72BF90020BDE8F0810022F2
S214015760F5E7A468DCE700BFD4160020C0160020C9
S214015770014B1878704700BFC816002038B5FEF7F1
S21401578010F9054600F024F904462846FEF70FF9FD
S214015790204638BD014B1868704700BFD016002060
S2140157A00C4B70B51B680D46834211D340F2E731AE
S2140157B000248C462146084B4FF47A721E6800235B
S2140157C0E0FB06C1604622F0F5F82860204670BD71
S2140157D02120FCE7C4160020D01600200F4B10B580
S2140157E01A689AB14FF47A71531E1342A0FB010155
S2140157F00ED1B2FA82F2C2F11F04531CD243E0402A
S21401580001FA03F3184321FA02F20243104610BDCF
S214015810002322F0CFF80246F8E700BFD01600209A
S214015820C2072DE9F34704460BD53F4A13880133D7
S2140158309BB21380FFF7E6FD3C4B1B680BB1FFF7ED
S2140158402BFEA3076DD5FEF7ACF8002605463746B6
S214015850FFF7D8FDB146DFF8D480D8F800400CB188
S21401586063698BB10022324B012F1A7002D1022ECE
S21401587008BF1F70002C44D0FFF70EFE284602B06A
S214015880BDE8F047FEF793B823461A79217991428D
S21401589088BF1C469B6813B15A69002AF5D0284672
S2140158A0FEF785F8256985B300F092F8A269861A95
S2140158B0F317B54279EB030328DA23691344A3618E
S2140158C00123226982B17BB9A91B0191FEF769F810
S2140158D0824601992046FFF7B1FDA3692269504629
S2140158E01344A361FEF763F8E368E688013713B152
S2140158F0204621689847FEF754F80546FFF782FDD3
S214015900ABE7022000F0AAF8B8E72E46FEF749F802
S21401591082462046FFF722FE5046FEF748F800234F
S214015920CFE702B0BDE8F087CA160020D4160020E3
S214015930CC16002010B5FEF734F8034B1C78FEF7A2
S21401594036F8204610BD00BFCC1600201FB5002437
S2140159501C4B012118689A880290D3F806009B7A9E
S21401596000903E20ADF80C208DF80430FDF72AFBA0
S21401597002A88DF808408DF80C40FEF723FD694615
S21401598001208DF80040FEF7E1FC4FF0B04240F2F6
S214015990FF31936923F47F7323F0030393610A4B6A
S2140159A05961936A13F00803FBD113620120FEF7D5
S2140159B0E7FC4FF48052054BC3F880211A6004B00F
S2140159C010BD00BF848403000020005800E100E001
S2140159D04FF0B0439A6A1207FCD4186A7047000069
S2140159E010B50446FDF7D6FF4FF0B042936A19078B
S2140159F0FCD4136A116C5269520604D4CA1A032ADB
S214015A0001D899420ED1E21A022A98BFDC1CB4F1E1
S214015A10FF3F38BF013C4FF0B0431C649A6942F027
S214015A2040029A61FDF7BAFF054A13783BB14FF081
S214015A30B041CB6B43F00203CB630023137010BD60
S214015A40510B002082074FF0B04200F0010391692C
S214015A5048BF43F040030B4393617047820700F051
S214015A6001030AD50121084A43F0400311704FF0A3
S214015A70B041CA6B22F00302CA634FF0B0418A6993
S214015A8022EA03038B617047510B0020830742BF54
S214015A904022014B5A617047001000584FF0B04346
S214015AA001285B6904D0022805D1C3F38010704732
S214015AB003F00100704700207047000010B5FDF7A5
S214015AC070FF4FF0B04304465B695A06074A03F07D
S214015AD0010003F0510348BF40F002005361FFF795
S214015AE09FFE2046BDE81040FDF761BF002000582C
S214015AF03E20FDF789BA08B5FCF706FDFCF73EFD2A
S214015B00FCF743FDFCF752FDBDE80840FCF757BD26
S214015B1008B5FCF755FDFCF754FDFCF753FDBDE851
S214015B200840FCF751BD000010B50446FCF718FF0D
S214015B300C4BA0F57A729A4212D84FF47A73B0FBE6
S214015B40F3F05C43084BB3FBF0F0B4FBF0F0022833
S214015B5006D9BDE810400323B0FBF3F000F008B807
S214015B6010BD00BFFFC99A3B40420F000000000075
S214015B70013800D0FCE77047FCF746BF08B504F0D3
S214015B8017F90AF03DFB07F08BF908F08CFA0020B4
S214015B9008BD0000024A0349034803F079BD00BF6F
S214015BA090840300DC840300B484030038B5044603
S214015BB0FDF7F0FE0546204622F0CCF804462846BE
S214015BC0FDF7ECFE204638BD37B504460191FDF7DA
S214015BD0E1FE01990546204622F07CF80446284657
S214015BE0FDF7DCFE204603B030BD38B50546FDF7AF
S214015BF0D1FE0446284622F0B5F82046BDE83840D6
S214015C00FDF7CCBE0A4619B1024B00211B681847A6
S214015C10704700BF540B002000F4E040B0F5805FF1
S214015C2004D0A0F5005358425841704701207047F0
S214015C300E4B0340B3F1607F06D1B1F5885F14BF08
S214015C406FF0860000207047B3F1707F0BD101F42E
S214015C50E043B3F5005F06D111F4E06F0CBF6FF0BF
S214015C608600002070476FF0860070470000C07FF6
S214015C708A42F8B507460D4600F021819B4822F07E
S214015C80FF01814210D09A4C22F4FF7323F00103E6
S214015C90A34209D0974B994206D0974922F47F73C5
S214015CA023F003038B4223D125F0FF01814210D05C
S214015CB08F4825F4FF7323F00103834209D08D4BEF
S214015CC0994206D08C4925F47F7323F003038B4257
S214015CD00ED115F0FF030BD0884943F000738B42B9
S214015CE006D16A4032F0FF030CBF01200020F8BD48
S214015CF005F0FE43B3F1A06F17D102F0FE43B3F1F6
S214015D00A06F40F0DE8082EA050333F47E1340F094
S214015D10D88015F40040EAD0C5F30540C2F3054229
S214015D2090428CBF00200120E1E7B3F1407F40F0B4
S214015D30B38002F0FE43B3F1407F40F0C28082EAB6
S214015D40050333F47E1640F0BC8039462846FFF73B
S214015D506FFF002840F0B580694C12F47C1C04EA01
S214015D60020438D0B4F1607FC2F3054C7AD165499C
S214015D70D3B243F000738B4278D003F17E410439ED
S214015D80012975D960498B4276D001318B4275D095
S214015D9001318B4274D001318B426BD001318B4281
S214015DA06AD001318B4269D003318B4264D0013114
S214015DB08B4263D001318B4262D001318B4208BFE6
S214015DC0402615F47C1FC5F305435BD1664514BF19
S214015DD0002001208BE7B4F1607F2BD14949D3B273
S214015DE043F000738B426ED003F17E4104390129E2
S214015DF06CD945498B426FD001318B426FD001314E
S214015E008B426FD001318B4263D001318B4263D01C
S214015E1001318B4263D003318B425DD001318B421D
S214015E205DD001318B425DD001318B4208BF4FF00E
S214015E30400C9CE7B4F1707FC3D107F4E043B3F59F
S214015E40005F05D14FF0010CC7F302230CFA03FCE7
S214015E5007F4E043B3F5005FB3D10126C7F302238D
S214015E609E40AEE7B4F1707FABD1F1E71026A8E70C
S214015E701426A6E74026A4E71C26A2E72026A0E7CC
S214015E8030269EE712F47C1F01D1B34217D02A04B4
S214015E907FF52DAF634544E7B3F1106F11D125F0BF
S214015EA01F6323F4702363B902F0FE43B3F1106F4E
S214015EB007D11648104040F01060A84287E701203D
S214015EC015E7002013E74FF0100C50E74FF0140CC5
S214015ED04DE74FF0400C4AE74FF01C0C47E74FF0F8
S214015EE0200C44E74FF0300C41E700BF00130006DA
S214015EF0000200060009000600040006FF0000027A
S214015F000000C07F03000002080000020000FFF648
S214015F107FB500F0FE46B6F1106F0D4603D06FF068
S214015F20850004B070BD20F01F6424F47024002C9A
S214015F30F5D10A9C0294099C0194089C009401F0F6
S214015F4001F810F1860FECD16B681B0AE9D1E6E780
S214015F502DE9F843884617461C4601F0C9F8054660
S214015F60002859D1D8F80060B6F8009009F4E0434B
S214015F70B3F5804FF36808BF27F0010737EA03033C
S214015F8042D1002C48D02F4A24F0FF03934211D06F
S214015F902D4924F4FF7222F001028A420AD02B4ACC
S214015FA0934207D024F47F7222F0030201F50071B8
S214015FB08A4234D114F0FF0231D022498B4211D0EB
S214015FC0214824F4FF7121F0010181420AD01F49C2
S214015FD08B4207D024F47F7323F00303A1F5A0615D
S214015FE08B4204D142F00073194A93421ED02246D6
S214015FF048463169FFF73CFE074668B922464846DF
S2140160007169FFF735FED0B96FF08405002330467D
S214016010C8F8003001F0BAF82846BDE8F88304F065
S214016020FE43B3F1407F04D12304E0D56FF086052B
S214016030ECE7B3F1A06FF7D0054B9C42D6E73D469F
S214016040EAE700BF0013000600020006000900068A
S214016050FF00000238B5037904460D4633B9A3683C
S21401606020462B6001F092F838B938BDD0E9081205
S21401607001F050F90028F2D0F7E700232B60F4E78F
S21401608000F0FE43B3F1407F70B505460E4640F082
S2140160909980FFF7CDFD002840F0968015F47C1F0F
S2140160A005D0C5F30543032B13700DD86BE04C4B9D
S2140160B02B40B3F1607F69D14A49EBB243F00073DC
S2140160C08B4231D110231370454C2C40B4F1607FC4
S2140160D06AD14449EAB242F000728A4275D002F1AE
S2140160E07E410439012972D93F498A4271D0013172
S2140160F08A4270D001318A426FD001318A4211D072
S21401610001318A4265D001318A4264D003318A4224
S2140161105FD001318A425ED001318A425DD00131C1
S2140161208A424FD140214BE003F17E4104390129D7
S21401613001D81423C7E72C498B4201D11C23C2E79F
S2140161402A498B4201D12023BDE729498B4201D13F
S2140161503023B8E727498B4201D14023B3E72649CC
S2140161608B42EBD001318B42EDD003318B42E5D02F
S21401617001318B42E7D001318B42E9D001318B42AC
S214016180EBD0002313706FF085001DE0B3F1707F34
S214016190F7D101F4E043B3F5005FF2D10123C1F377
S2140161A002218B40DBB27EE7B4F1707F0AD106F4A0
S2140161B0E042B2F5005F05D10121C6F3022291400B
S2140161C08B4201D96FF0860070BD1021F8E71421CB
S2140161D0F6E71C21F4E72021F2E73021F0E700BFC3
S2140161E00000C07F03000002080000020900000250
S2140161F00A0000020B0000020C0000022DE9F04725
S214016200174624220D460021044692B00DEB0200EB
S2140162109A46DDE91A868DF81F10DDF8709021F098
S214016220E0FD1D9B2046002B18BF4FF480622B46D5
S21401623008BF4FF4006208A9FFF78AFE044620BB98
S214016240DDF820C009ACBCE80F000FC49CE80700CD
S21401625084E807002846BDF824100DF11F02FFF759
S2140162600FFF044688B99DF81F30B34224D8CDE904
S2140162700339CDE901A8089900972B46D1E9081200
S21401628009A800F00CFE044620B10023C9F80060FE
S2140162908DF81F309DF81F00B04204D2321A21211A
S2140162A0404421F09EFD089800F070FF002C18BFB6
S2140162B0204612B0BDE8F0876FF08904E5E70023B9
S2140162C02DE9F341D0E9016804460F4630461146F0
S2140162D0136000F065FF054688B9304600F062FF9E
S2140162E0054660B9F6B276B9B8F1000F05D1E36894
S2140162F023F47F4323F0030363B16FF0860528463A
S21401630002B0BDE8F0810146A06800F044FE002816
S214016310EDD1F2E74FF6F87362889A421CD8238BC8
S21401632023F00103002BE8D1394601A800F09EFEB8
S21401633005460028E3D10FCC3F683E460FC694E8D9
S21401634007003B7986E807000BB9019BBB603B8BD6
S21401635023F001033B83D2E76FF08505CFE7B0F565
S214016360105F0DD009D8B0F5885F10D0B0F5905FFA
S2140163700DD041F20103984209D06FF085007047B5
S21401638021F04003802B02D0B1F5807F06D111F0B9
S214016390070F14BF6FF08600002070476FF086006D
S2140163A0704770B5046A05460E463CB90120FFF7F2
S2140163B00BFC286228B120466E6270BD6FF08A0021
S2140163C0FBE76FF08C00F8E773B50E4611460546FD
S2140163D00192FFF7E6FF044620B93146019A286A82
S2140163E021F0D8FC204602B070BD2DE9F041089D91
S2140163F088461F46048802B32046FFF70DFCE0B12D
S2140164002B680BB9D3002B6020462968FFF7A7FF3E
S214016410044678B9CE1DB2EBD60F11D1069B9A422F
S21401642011D84146384621F0B5FC2B68079A073348
S214016430DB0813602046BDE8F0816FF08504F9E7BC
S2140164406FF08604F6E76FF08904F3E710B50446AB
S214016450006A10B1616AFFF7D5FB206AFFF7C5FB3A
S2140164600020C4E9080010BD38B50446FFF7EEFF6A
S214016470E3692822012B0CBF05466FF09605002123
S214016480204621F0AEFC284638BD13B5044660B15F
S21401649001A900F02DFE044638B90198C369012B05
S2140164A006D900F073FE6FF08304204602B010BDDB
S2140164B00379FF2B0BD01BB1806800F085FE0446E4
S2140164C00198FFF7D1FF002818BF0446EDE76FF0EB
S2140164D08404F5E773B5044608460E4600F0D6FB7D
S2140164E0002320461A4601A9FFF732FD70B934464B
S2140164F0019D0FCD0FC495E8070084E80700338B94
S214016500019803F00103338300F040FE02B070BD32
S21401651070B5144602881D461046049EFFF77CFBA4
S21401652050B944F2010322F44050984204D002F4D8
S2140165304F42B2F5824F0ED1B4420FD822462846BA
S21401654021F028FC0021321B281921F04AFC0020EA
S214016550059B1C6070BD6FF08500FBE76FF089003E
S214016560F8E72DE9F04188461F4616468CB022B35F
S214016570002301223B6002A9FFF7EAFCD0B9DDF84F
S21401658008C003AC6546CDE90A000FCD0FC495E8F7
S214016590070084E80700CDE900674346DCE90812F6
S2140165A003A800F03EFC0446029800F0EFFD002C24
S2140165B018BF20460CB0BDE8F0816FF08900F9E7FE
S2140165C070B51446028844F2010022F44056864211
S2140165D0049D04D002F44F40B0F5824F13D102F46B
S2140165E0E042B2F5804F0ED1AC420FD81846224693
S2140165F021F0D0FB00212A1B204421F0F2FB0020D1
S214016600059B1C6070BD6FF08500FBE76FF089008D
S214016610F8E72DE9F0438946984617468DB052B300
S214016620002302A91A46C8F80030FFF791FCE0B92A
S214016630029E33885B041BD5354603ACCDE90A00C0
S2140166400FCD0FC495E8070084E80700CDE9007870
S2140166504B46D6E9081203A800F0EEFB0446029862
S21401666000F094FD002C18BF20460DB0BDE8F08365
S2140166706FF08604F3E76FF08900F6E72DE9F04145
S2140166801F46002388B0054688461646CDE90433E2
S21401669007923B60002A5FD0B2F1005F5FD205AA85
S2140166A004A9FFF70CFE0446A0B9049B1B6ABBB104
S2140166B0049B41465A882846069206AA029203F18E
S2140166C0240201925A6A00921B6A324600F082FB4B
S2140166D00446D0B10498002832D0FFF7C5FE2FE05B
S2140166E06B681B0A07D107990498FFF75AFE044600
S2140166F00028DDD0EEE732464146284607AB00F0DB
S214016700F4FA04460028EED0E4E70498069B428893
S214016710D2B943804FF6F87293421AD82B8813B138
S21401672002889A4212D12B6A83B96B8813B14288C8
S2140167309A420BD13946FFF78DFC04460028C9D191
S214016740204608B0BDE8F0819A42E3D06FF0860497
S214016750C0E76FF08504BDE76FF08604F0E76FF0E1
S2140167608504EDE7036810B5044653B100F0E1FB7C
S21401677000232360A38823F4FF7323F00103A3807F
S21401678010BD1846FCE72DE9F04105460C460021F0
S2140167908CB0174603A824229846029121F021FBCB
S2140167A02B68002B3DD1B8F1000F20463B4614BFA5
S2140167B04FF480624FF4006202A9FFF7C9FB04465A
S2140167C000BB029E03AC0FCE0FC496E8070084E818
S2140167D007003846BDF80C102A1DFFF751FC044689
S2140167E080B96B79284668F300036B71029B03A995
S2140167F0D3E908230097B8F1000F0FD000F05CFB37
S214016800044610B12846FFF7ADFF029800F0BEFC23
S214016810002C18BF20460CB0BDE8F08100F05FFBED
S214016820EEE76FF08804EDE70123FFF7ACBF38B55C
S2140168300368054614464BB132B100F063FB0446CB
S21401684010B12846FFF78EFF204638BD6FF088044A
S214016850FAE72DE9F0411646026805460F469846C6
S214016860F2B14279D2071BD50279CAB1B2421AD81F
S21401687000F051FB044618B10023C8F800602B71E4
S2140168802879B04204D2321A2121384421F0A9FADB
S2140168902846FFF767FF002C18BF2046BDE8F081A9
S2140168A06FF08804E8E76FF08904E5E71FB5012477
S2140168B00394089C0294079C0194069C0094FFF79D
S2140168C09DFC04B010BD000037B50C4D0C462B786E
S2140168D0DB070FD500230A460193014601AB281DAD
S2140168E002F048FE20B9019BA34218BF6FF0930047
S2140168F003B030BD6FF08800FAE700BFD81600205D
S2140169002DE9F04F00249A4601F0FE4397B0B3F10B
S214016910806F0E46DDE920B89146229F089478D113
S2140169200B464FF4807208A9FFF712FB05460028B4
S21401693041D1DDF820C00DAC6546CDE914000FCD80
S2140169400FC495E80700BCF8003084E8070003F49C
S214016950E042B2F5005F1BD113F4E06FC3F30221EE
S21401696016D0304826F4807282420AD000F50070B4
S214016970864206D02C48864203D0A0F53F4082428C
S21401698006D101248C40102C0DD96FF0830512E03E
S21401699042F20402934202D1244B9E421ED0244B63
S2140169A09E421DD10D24A04530D3214609A8FFF7EC
S2140169B08BFF0546A8B1089800F0E8FB064665BBC4
S2140169C050BB24B12246584609A921F0E3F93B6899
S2140169D023443B60304617B0BDE8F08F0C24E2E755
S2140169E00024A8EB040305930BEB0403CDE903A3F2
S2140169F0CDE90149089909AB009306973346D1E9D9
S214016A0008120DA800F03AFA0546D4E76FF089059A
S214016A10D1E76FF08605CEE7054600232E463B609C
S214016A20D8E700BF0010C00400FF40040001800446
S214016A300013C0042DE9F04705469A46002386B0A8
S214016A40059305F0FE43B3F1106F0846DDE90E9697
S214016A501746DDF8408022D12B464FF4804205A927
S214016A60FFF776FA044658B953463A462846CDE922
S214016A7001680599CDF80090FFF74AFA044628B157
S214016A8031464846FFF720FFC8F80060059800F039
S214016A907DFB002C18BF204606B0BDE8F0876FF0DE
S214016AA08604EDE7034610B50C461146DA69008800
S214016AB00AB91B6A3BB9FFF7AFF838B12046BDE803
S214016AC01040FFF701BF6FF0860010BD6FF0850024
S214016AD0FBE72DE9FF410023CDE901330B60438835
S214016AE006460D46002B00F08E80038803F4E04333
S214016AF0B3F5804F00F0878002AA01A9FFF7DFFBFC
S214016B00044600BB019B1B6A73B10199304601F133
S214016B102403D1E9081200F03FF90446002875D095
S214016B200198FFF793FC0EE07268170A60D1B6F879
S214016B30008071884046FFF76FF860B14046FFF766
S214016B400EFC044660B1019808B1FFF78DFC2046A3
S214016B5004B0BDE8F08128F0FF03B3F5E24F4FD152
S214016B6008F4E043B3F5805F02D0B3F5005F02D1CD
S214016B70CA1DD7100AE047F2010398450FD14A080B
S214016B800132D21002EBC20202F13B0703970399CE
S214016B900198FFF706FC04460028B6D0D3E744F276
S214016BA00103984503D1CA0802F11007EEE747F240
S214016BB00203984505D1CA0802EB420202F15A07C0
S214016BC0E4E744F20203984505D1CA0802EB420203
S214016BD002F14A07DAE728F0FF00B0F5E24FC7D026
S214016BE0B0F5824F01BFCA1DD2105200571CCDE727
S214016BF0304603A900F07EF804460028C7D0A2E775
S214016C006FF085049FE76FF08604A0E72946019898
S214016C10FFF720FA0446002899D094E708B500F05B
S214016C200BFA084B0C211A78064812F0060F1CBF07
S214016C300022C3E90122FEF7E5FFBDE8084000F0A7
S214016C4053B800BFD816002038B50F4D2B7813F077
S214016C50010213D1C5E90122022262F342032B701D
S214016C6000F0DEF9044658B900F03CF8044638B99D
S214016C702B7843F001032B70204638BD0024FBE738
S214016C80FFF7CCFFF8E700BFD816002010B5044682
S214016C90C069FEF7AAFF2046BDE810402422002165
S214016CA021F09FB82DE9F04105460F4690461C4657
S214016CB09BB119460120FEF787FF064678B12246AA
S214016CC0414621F067F8E86908B1FEF78EFF00201B
S214016CD0C5E907642F80BDE8F0811E46F3E76FF033
S214016CE08C00F8E702F044BC704700226FF0860083
S214016CF01A607047028843884068000A47D102F448
S214016D00E040B0F5805F02D0B0F5005F05D10733F3
S214016D10DB0863B96FF08500704747F201008242D5
S214016D200FD15B080133DB0803EBC3033B3322F0CF
S214016D30FF02B2F5824F01D1012BEBD000200B6090
S214016D40704744F20100824202D1DB081033EEE7BD
S214016D5047F20200824204D1DB0803EB43035A33B5
S214016D60E5E744F20200824204D1DB0803EB430369
S214016D704A33DCE722F0FF00B0F5E24FC7D0B0F5AA
S214016D80824FC7D10733DB085B000133CFE700230F
S214016D906FF086000B6070472DE9F04147680446A6
S214016DA03F0A0D461646984611D107887F0407D438
S214016DB04346324629462046BDE8F041FFF772BEFB
S214016DC002F0AAF810F1860FF2D0BDE8F0816FF05C
S214016DD08600FAE72DE9F04F456885B02D0A04468E
S214016DE0DDE90E7A894616469846DDF840B013D19D
S214016DF0CDE901AB009702F079F910F1860F0DD1BC
S214016E004346324649462046CDE90FAB0E9705B0BC
S214016E10BDE8F04FFFF7E9BA6FF0860005B0BDE8B0
S214016E20F08F70B44668360A02D170BCFFF770BBAB
S214016E306FF0860070BC70472DE9F347456804463D
S214016E40DDE90A7A2D0A89461646984611D1CDE91A
S214016E50007A02F0D1F810F1860F0CD14346324683
S214016E6049462046CDE90A7A02B0BDE8F047FFF769
S214016E70A7BB6FF0860002B0BDE8F0872DE9F043AE
S214016E80DDE90BCED0F804905FEA192903D1BDE8FD
S214016E90F04301F02FBF6FF08600BDE8F083F0B538
S214016EA0D0F804E05FEA1E2E03D1BDE8F04002F000
S214016EB009BA6FF08600F0BD13B504464868000AAB
S214016EC00AD10498009004F1080002F065FA08B9A6
S214016ED00623236002B010BD6FF08600FAE713B5F3
S214016EE004464868000A0AD10498009004F1080094
S214016EF002F084FA08B90623236002B010BD6FF0D1
S214016F008600FAE70368062B02D1083002F078BA49
S214016F106FF08600704710B40468062C04D15DF843
S214016F20044B083002F0BCBA6FF086005DF8044BE3
S214016F3070470368062B02D1083002F005BB6FF0DC
S214016F40860070472DE9F04198460D4600230E460F
S214016F5090B007ACCDE90E33844617460FCD0FC46B
S214016F6095E80700736884E807001B0A10D1189B90
S214016F7060460493179B00970393169B07A9CDE9D8
S214016F800183D6E9082301F023FF10B0BDE8F081A4
S214016F906FF08600F9E76FF04043421E9A4208D32D
S214016FA029B100F1404098428CBF002101210846DA
S214016FB070470121FBE7000000F100420332022A7C
S214016FC038B504460D460ED82821144B01FB023372
S214016FD09A6882421CD1DA69511C1CD00020013209
S214016FE0DA612B6038BD0121FFF7D5FF68B10B4B85
S214016FF09A689442EFD01A6B944204D09A6D9442E8
S21401700006D15033E7E72833E5E76FF08700E9E775
S2140170106FF08B00E6E76FF09600E3E7E4160020DA
S214017020044A002092F8783043F0010382F8783061
S214017030704700BFE416002038B501250A4C2046EB
S214017040E561FFF711FA04F128006564FFF70CFA11
S21401705004F15000E566FFF707FA94F878306FF30D
S214017060000384F8783038BDE4160020F8B51E4CCD
S214017070064694F878300F46D8072ED500252346C5
S214017080294618881A46A8B12DB91A791AB1DA69AB
S214017090002A08BF1D460131032903F12803F0D158
S2140170A015B96FF08C001AE001232846EB61FFF753
S2140170B0DBF92A46D369591C02D16FF096000EE01F
S2140170C000200133D361141B084BE4105C4304F128
S2140170D00044033C34603A60F8BD6FF0880000233A
S2140170E03B603360F8E700BFE4160020CDCCCCCC83
S2140170F00023F0B50B60244B074693F878300D4615
S214017100DC0785B03CD5FFF757FF10F18C0F04461E
S21401711025D1294601A8FFF7A9FF0446F8B901239E
S2140171202E68CDE90200B7603046736003AA02A953
S21401713000F049F9044628B9DDE902123046FFF7A6
S21401714043F90446DDE9020100F033F954B1286839
S214017150FFF78AF914F18C0F08BF6FF087042046F9
S21401716005B0F0BD2B68DA68D00444BF42F48062F3
S214017170DA60DA689104F2D542F40062DA60EEE78A
S2140171806FF08804EBE700BFE416002038B1C3694E
S2140171901BB1013BC361002070476FF0960070473A
S2140171A000207047C0B2FF280CBF6FF08600002099
S2140171B0704707B500216A4601F00EFD8C3018BFF6
S2140171C0012003B05DF804FB13B500216A460446AE
S2140171D001F002FD8C3002D1002002B010BD00216A
S2140171E0204601F02DFD014628B96A46204601F0E9
S2140171F0F3FC8C30F0D06FF09800EEE730B4224DFF
S2140172002C681C606C685C6000241C725C729C724A
S214017210DC725468250A1C735D73250C240E9D735D
S214017220DC7314881C74240A5C7454889C74240AC5
S214017230DC74D468250A1C755D75250C240E9D75B5
S214017240DC751469250A1C765D76250C240E9D7660
S214017250DC765269140A1A775C77140C120EDA7708
S2140172600A0A83F821200A0C83F822200A0E9C774A
S21401727083F8201083F8232030BC0A46014603F128
S214017280240020F087BD00BF268503002DE9F843C2
S214017290232904460F4691469846089E04D86FF067
S2140172A098052846BDE8F8830822194920F062FDB2
S2140172B005460028F3D1A368002BF0D1216A243FAC
S2140172C0B942C8F80010EAD8B1F5005FE7D271B943
S2140172D0C9F80000E3687360238A3380638A738089
S2140172E06369F360A3693361E3697361D9E70120D8
S2140172F0FEF76AFCC9F8000030B1D8F8002004F1A6
S214017300240120F047FDE5E76FF08C05C9E700BFD3
S214017310268503002DE9FF410646144688460029C6
S2140173203ED0002A3CD0B2F5005F3CD202F12407E1
S21401733039460120FEF748FC0546B8B303463246F7
S21401734021464046FFF75AFFB66800243046FFF74D
S21401735030FF01281ED021462B463A46304600947F
S21401736001F04EFB0146C0B9304602AA01F034FCDA
S214017370044620B9029B9F4205D06FF09804304620
S214017380002101F05DFC2846FEF72FFC204604B0E4
S214017390BDE8F0816FF08A04F5E76FF09804F2E734
S2140173A06FF08604F2E76FF08D04EFE76FF08C0460
S2140173B0ECE710B5044608B1FEF724FC2046BDE80C
S2140173C01040FEF712BC2DE9F047D0F808A086B0B1
S2140173D081460F4616465046002104AA01F0FCFBE2
S2140173E0044610BBDDF8108001204146FEF7ECFB99
S2140173F00546002835D02146504604AA039401F0DC
S214017400EBFB044670B903AB02462146CDE90053B7
S2140174105046434601F07CFB039B0446984508D042
S2140174206FF098042846FEF7E0FB204606B0BDE85C
S214017430F0870028F6D133463A4641462846CDF82D
S2140174400090FFF723FF04460028EBD13B682BB1E1
S2140174503368002B08BF6FF09104E3E76FF09104E7
S214017460E0E76FF08C04E0E70020704713B51AB12F
S2140174700024009400F022FA02B010BD1B0603F0AF
S214017480706300F00F000902034301F470611204F7
S21401749002F470220B431343014A1360704700BF86
S2140174A00020025C60B5054619B10139B1F5806F5F
S2140174B010D2094EF06810F48030FBD143EA012166
S2140174C0120741EA050302F08052134343F00043DA
S2140174D0736060BD0120FCE70020025CF0B58DB052
S2140174E005AC84E807001C46A1420D4628BF254688
S2140174F0129B0DB304B311462846002603F5381334
S214017500CDE90A468DE8030003F241135F02C5EB9D
S2140175104323099302950CAA059B12E907000695D9
S21401752000F0E0FCA54207D23146621B381B0DB0C5
S214017530BDE8F04000F0D4BC0DB0F0BD30B591B060
S21401754001AC84E807001C461346DA0049BF029ADC
S2140175506200033222F00302014604A8FFF786FF09
S21401756004A800F0C1F91499224601F5381101F278
S21401757041114D0208A8C4EB41210023FFF776FF15
S21401758005F5007100232246091B0CA8FFF76EFFC4
S2140175900CA800F0A9F908A904A800F07FF911B019
S2140175A030BD70B590B001AC84E807001C46149954
S2140175B0164601F5381101F2411122464D0208A87E
S2140175C0C4EB41210023FFF751FF05F50071224668
S2140175D00023091B0CA8FFF749FF0CA800F084F94B
S2140175E0F30048BF029A334648BF033201994CBFA5
S2140175F022F00302620004A8FFF738FF04A800F097
S21401760073F904A908A800F049F910B070BD10B5C7
S2140176108CB005AC84E807000E9ADDE9060102F598
S214017620381202F5A0725202CDE9092300228DE834
S21401763003000B9202930CAA059B12E9070000F0C7
S21401764051FC0CB010BD00000122054B9A60DA68AF
S214017650D203FCD4D86820F00F000004000C704759
S2140176600020025C2DE9F04B4FF0000899460746D2
S214017670164645468AB003AC84E8070002F0805BF4
S21401768007AC049A424502D80AB0BDE8F08B139BBA
S21401769013B9AA1E012A0AD9129BCDE907790996C0
S2140176A000955BB194E807004B46FFF717FFBBF167
S2140176B0000F00D14F440135C844E2E74B4694E839
S2140176C00700FFF7A4FFF2E7014B1868704700BFF9
S2140176D00040025C014B5868704700BF0010025C16
S2140176E0014B186B704700BF0010025C014B186815
S2140176F0704700BF0010025C014B9860704700BFE6
S2140177000010025C014B1864704700BF0010025C59
S214017710014B5864704700BF0010025C014B586370
S214017720704700BF0010025C0022014B1A607047D0
S2140177300010025C024A136843F0010313607047AD
S2140177400010025C43F20402014B1A60704700BF4E
S2140177500010025C024A136843F03003136070475E
S2140177600010025C044B1A6842F480721A601A68B0
S21401777022F480721A6070470010025C024A136895
S21401778043F48063136070470010025C034A136879
S21401779023F4702343EA0040106070470010025C37
S2140177A0044B1A6902605A6942609A698260DB6911
S2140177B0C36070470010025C0268044B1A6142689D
S2140177C05A6182689A61C268DA6170470010025C89
S2140177D0024B1A6BD207FCD4186270470010025C89
S2140177E082B01FB507930A9B04AC8B4228BF0B4699
S2140177F004E907001048D100079948BF0333016028
S214017800099948BF23F0030323F0704301F0E041D8
S214017810194341F000518160002102F0E042019CD1
S214017820134343F00053C16004618361416304B0B4
S214017830BDE8104002B070470000025C3F22034BD7
S2140178401A631022DA6103229A6370470000025C11
S214017850024AD36B9B07FCD4704700BF0000025C52
S214017860034B986A10F0240018BF0420704700BF2D
S2140178700000025C08B5FFF7F3FF064BDB6B23F451
S2140178807F4323F0EF0303431EBF0122024BC3F8DD
S214017890FC2F08BD0000025C00F0FF3F032208B584
S2140178A0054B186019615A63FFF7C8FFFFF7D0FF51
S2140178B0BDE80840FFF7DEBF0000025C10B522F00D
S2140178C0704200F11004C0E90014826041B1826880
