S011000042523435305F44656D6F2E733337D2
S214012000C00A00203D3A0100393A0100393A010080
S214012010D15D0100393A0100393A0100393A01002F
S214012020393A0100393A0100393A0100393A0100DA
S214012030393A010084A40300B5240100393A0100AD
S214012040393A0100393A0100393A0100393A0100BA
S214012050393A0100393A0100393A0100393A0100AA
S214012060393A0100393A0100393A0100393A01009A
S214012070096D0100393A0100393A0100393A010087
S214012080393A0100393A0100393A0100393A01007A
S214012090393A0100393A0100393A0100393A01006A
S2140120A0393A0100393A0100393A0100393A01005A
S2140120B0393A010061800300393A0100418A030080
S2140120C0F9890300F5890300318203003D8A030084
S2140120D0FD890300158A0300018A0300A18A030013
S2140120E01D650300E5660300818A0300393A010095
S2140120F0415C0100393A0100393A0100393A0100E0
S214012100393A0100393A0100393A0100393A0100F9
S214012110393A0100393A0100393A0100393A0100E9
S214012120393A0100393A0100393A0100393A0100D9
S214012130393A0100393A0100393A0100393A0100C9
S21401214010B5054C237833B9044B13B1044800E0AD
S21401215000BF0123237010BD980E00200000000070
S2140121609CEF030008B5034B1BB10349034800E08D
S21401217000BF08BD000000009C0E00209CEF03007D
S214012180A3F5803A704700BF174B002B08BF134BCF
S2140121909D46FFF7F5FF00218B460F461348144A6C
S2140121A0121A27F0ECFB0E4B002B00D098470D4B74
S2140121B0002B00D098470020002104000D000D4898
S2140121C0002802D00C4800E000BF27F06DFB20007D
S2140121D0290000F063F927F053FB00BF0000080058
S2140121E00000000000000000C00A0020980E002039
S2140121F0E8260020000000000000000070B5314D08
S21401220092B008AC0FCD0FC40FCD0FC495E80300F4
S21401221001250026032384E803002B4C29462A20A7
S214012220CDE90366CDE905668DF80E3007968DF883
S21401223008508DF809608DF80A608DF80B6001F082
S214012240B1FF29463A2001F0ADFF204602F008FF13
S21401225002214FF4B06002F0FFFA02233246204614
S2140122601A498DF8173002F073FF40F2BA4332462E
S2140122708DF819000B930090334620461449ADF8AB
S214012280225002F07FFF90238DF8093091230A90A7
S21401229008AA204605A98DF8083002F099FF02AA7F
S2140122A0204603A902F09BFE0A4BD3F824232A43B7
S2140122B0C3F82423D3F8242342F48032C3F824231A
S2140122C012B070BDA8A103000040005A002D3101D4
S2140122D08096980000C0035008B5104B1B68C3F3E6
S2140122E00743012B0ED10E4B04205A6E4FF4802368
S2140122F00C49520358BF0C4A4B6601F5104108625F
S21401230058BF5366FFF77AFF01F0F4F8B2EE040AFD
S21401231001F024F9BDE8084001F0ACB90080E00FF7
S214012320008000500090005000A000507047000050
S21401233030B50368524A23F47F4323F007039342E0
S214012340044689B04ED002F58022934257D04D4ABA
S21401235093426ED10DF10F0104A819F0E5FA01467A
S21401236000B1FEE79DF8153008228DF818309DF86B
S214012370143012208DF819309DF813308DF81A306C
S214012380FF238DF81B30FE238DF81C309DF812308C
S2140123908DF81D309DF811308DF81E309DF81030E7
S2140123A08DF81F3006AB19F067FA00B1FEE7364C20
S2140123B0204619F0EDF900B1FEE70221207819F068
S2140123C021FA034600B1FEE7A022009011462078CC
S2140123D019F0F6F900B1FEE70221207819F026FA85
S2140123E038B3FEE7284C0221207819F00BFA00B129
S2140123F0FEE70221207819F019FAD0B1FEE7B0F80D
S2140124000530172B17D0192B27D0152B34D11F4A7F
S2140124101378591C8DF80F30012311700DF10F023E
S21401242004A9CDE900210022B4F80510207919F09D
S21401243039FA09B030BD0123154AD360536903F454
S214012440A073B3F5807FF9D1114906A803F03CF8D3
S214012450069B104A13600423E2E701F021F901F01C
S21401246041F90028FBD00C4D284601F0C9F82B880D
S21401247006AA6B880223D3E700221346D0E700BFE3
S214012480A0000601A0000100C00A0020BA0E00202C
S2140124900040005ABC0E0020B40E002008B504F01F
S2140124A050FCFFF719FF04F059FCFFF73FFF03F05C
S2140124B011FEF8E708F01CBC04F094BC10B5044605
S2140124C000F0CEF82046FFF733FF10BD012070471D
S2140124D000B5C3B008F02EFB08F057FB48B1FFF774
S2140124E0F5FF30B101A819F04CF910B901A8FFF7B2
S2140124F0E5FF43B05DF804FB00F0E0B808B5032142
S214012500802002F0A9F903214FF4806002F0A4F9BB
S21401251003214FF4906002F09FF908214FF4C06048
S21401252002F09AF908214FF4F06002F095F90821BB
S2140125303E2002F091F908212D2002F08DF90020AD
S21401254008BD000008B5184B1B68C3F30743012BF1
S2140125500ED1164B04205A6E4FF4802314495203B1
S21401256058BF144A4B6601F51041086258BF5366BE
S21401257003F086FA00F0B6F803F00EFA03F09EFABE
S21401258003F02CFA03F060FA03F064FAFFF7B6FFE3
S21401259003F012FA00F09BF801F010FB01F0D2FBF9
S2140125A0BDE8084003F0A6BC0080E00F00800050A4
S2140125B00090005000A0005008B501F045FBBDE8B2
S2140125C0084000F0C3B808B500F076F804F0E0F86B
S2140125D003F076FA06F07EFF03F048FB05F05CFC9C
S2140125E0BDE8084007F07CB908B503F0ADF903F083
S2140125F0BBF9BDE80840FFF75FBF704770477047FB
S214012600FFF766BF7047012070470120704710B57D
S21401261008F0FCFA0446FFF7F6FF002814BF204630
S214012620002010BD38B503F057FE044608F0FCFA4A
S214012630042810D002284FF0000508BF0124FFF738
S214012640E4FF042809D0022808BF0124002D18BF82
S2140126500024204638BD0125F1E70024F9E70000F3
S2140126600368134A23F47F4323F00703934210B50C
S214012670044615D002F18272934218D1B0F80510C3
S2140126801C2914D101220B4B00791A70002219F073
S21401269033F900B1FEE7207919F0DCF838B1FEE72E
S2140126A0044B1B781BB1BDE8104004F08DBB10BD78
S2140126B0A0000601C00E00200F207047042208B5B6
S2140126C011460023012002F00BFC002008BD08B5CE
S2140126D001213A2001F066FDFFF70EFFBDE8084034
S2140126E001F018B901213A2001F05CBD70B5002453
S2140126F0064625465B21082001F002FB102C04F15A
S214012700010300D170BD012B14D0022B14D0032B72
S21401271014D0042B14D0052B04D16A1C2946D5B23B
S2140127201C46E8E70D3C012C0CD9102B0CD0B21F2F
S214012730D15CF5E70C21F3E7D121F1E78021EFE742
S2140127400021EDE75A21EBE75D21E9E707B508200F
S21401275001F0CAFA02238DF80030044B6846019353
S214012760FFF7C4FF03B05DF804FB00BF006A181052
S2140127700020704730B52A4D89B001AC0FCD0FC48B
S21401278095E8070084E807000124264B21464FF40C
S214012790207003938DF8124001F004FD2146282095
S2140127A001F000FD21463A2001F0FCFC0023042242
S2140127B01946032002F094FB2246214600230320FB
S2140127C002F08EFB032100230846042202F088FB58
S2140127D0234604222146002002F082FB124802F022
S2140127E031FF114801A902F05BFF1C2200200F4BAC
S2140127F0C3F81C26D3F8342642F00302C3F8342665
S214012800D3F82C2642F4803242F00302C3F82C2679
S214012810D3F8302642F00312C3F8302609B030BD93
S2140128204CA40300A05A320000C0055000C003505B
S214012830F8B5022704460C4D0C4E05F500531F61F2
S2140128407F21304602F09CFF304602F089FF2101CD
S214012850304601F0F00102F093FF05F58055304651
S21401286002F07EFF2F61F8BD00C0035000C0055086
S21401287070B50546C0F3C7100E461446FFF7D8FFDD
S21401288002220E4B65F07F05E9B20D481A6102F08F
S21401289077FF0B4802F064FF094D2644B44203D18A
S2140128A00222084B1A6170BD0021284602F068FF1B
S2140128B0284602F055FF04F8010BEFE700E003504D
S2140128C000C0055000D0035013B5044601214FF453
S2140128D08A700DF10702FFF7CBFF9DF8073003F072
S2140128E00603062B08D8DFE803F004070A070D07DE
S2140128F010004FF062532360002002B010BD4FF06D
S2140129006453F8E74FF06653F5E74FF06853F2E784
S2140129101FB5044601A8FFF7D7FF06212D2002AAFE
S214012920FFF7A6FFBDF80830DDED016ADBBA07EE5A
S214012930103AB8EEC77A27EE267ABDF80A3084ED4B
S214012940007ADBBA07EE103ABDF80C30B8EEC77A5B
S214012950DBBA07EE903AF8EEE77A27EE267A67EECC
S214012960A67A002084ED017AC4ED027A04B010BD87
S21401297013B50446012140F201100DF10702FFF7DD
S21401298077FF9DF8073003F00603062B07D8DFE82C
S21401299003F0040609060B060D00054B2360002014
S2140129A002B010BD034BF9E7034BF7E7034BF5E71E
S2140129B00000FA3B00007A3C0000FA3C00007A3D39
S2140129C01FB5044601A8FFF7D3FF0621332002AA4C
S2140129D0FFF74EFFBDF80830DDED016ADBBA07EE02
S2140129E0103AB8EEC77A27EE267ABDF80A3084ED9B
S2140129F0007ADBBA07EE103ABDF80C30B8EEC77AAB
S214012A00DBBA07EE903AF8EEE77A27EE267A67EE1B
S214012A10A67A002084ED017AC4ED027A04B010BDD6
S214012A2013B504460421192001AAFFF721FF00204F
S214012A30019B236002B010BD07B501211A200DF1DC
S214012A400702FFF715FF9DF8070000F0010003B02D
S214012A505DF804FB08B5024601210020FFF708FFD8
S214012A60002008BD2DE9F04106464FF002080F464A
S214012A700F4C104DC0F3C710FFF7DAFE04F50053F4
S214012A80C3F8108006F07F01284602F079FE28463A
S214012A9002F066FE3946284602F072FE04F58054BE
S214012AA0284602F05DFEC4F81080BDE8F08100BF44
S214012AB000C0035000C0055008B580210620FFF76E
S214012AC0D1FF642003F076FF002008BD07B5FFF7AD
S214012AD051FEFFF7F1FF10210320FFF7C3FF01218D
S214012AE000200DF10702FFF7C3FE9DF80730E02B2B
S214012AF001D0EA2B0ED101210620FFF7B3FF1E20DD
S214012B0003F058FF0F20C021FFF7ACFF002003B0F1
S214012B105DF804FB1020FAE713B504460DF1070231
S214012B2001214FF48A70FFF7A3FE9DF8071004F009
S214012B30060421F0060121434FF48A708DF8071030
S214012B40FFF790FF002002B010BD13B504460DF14B
S214012B500702012140F20110FFF78AFE9DF80710D7
S214012B6004F0060421F00601214340F201108DF81D
S214012B700710FFF777FF002002B010BD000000002D
S214012B8013B510EE100A26F0A1F902460B461CA159
S214012B90D1E9000126F01CFB00221B4B26F036F87B
S214012BA026F086FC9FED197A07EE900AF4EEC77AB6
S214012BB0F1EE10FA21DCF5EEC07AF1EE10FA01D54D
S214012BC0DFED137AFCEEE77ACDED017A9DF804404D
S214012BD04FF480702146FFF745FF601C26F064F92C
S214012BE002460B4606A1D1E9000126F0F1FA26F0CD
S214012BF05FFC00EE100A02B010BDF0EE477AE1E786
S214012C0000000000009491400000F03F00007F4368
S214012C10000000000000000010EE100A10B526F0BB
S214012C2055F902460B461EA1D1E9000126F0D0FA5D
S214012C3000221D4B25F0EAFF26F03AFC9FED1B7A99
S214012C4007EE900AF4EEC77AF1EE10FA25DCF5EEFF
S214012C50C07AF1EE10FA01D5DFED157AFCEEE77ACF
S214012C6017EE901A4FF488708CB2C1F30721FFF764
S214012C70F9FEE1B240F21110FFF7F4FE601C26F0F7
S214012C8013F902460B4606A1D1E9000126F0A0FA87
S214012C9026F00EFC00EE100A10BDF0EE477ADDE7D6
S214012CA000000000009491400000F03F00F07F45D6
S214012CB00000000008B52DED028BB0EE408AFFF74C
S214012CC05FFFB0EE480AFFF7A7FFBDEC028B0020BE
S214012CD008BD13B504460DF10702012140F20110AB
S214012CE0FFF7C6FD9DF8071004F0390421F03901FD
S214012CF0214340F201108DF80710FFF7B3FE0020C4
S214012D0002B010BD13B504460DF1070201214FF4C0
S214012D108A70FFF7ADFD9DF8071004F0390421F025
S214012D20390121434FF48A708DF80710FFF79AFE98
S214012D30002002B010BD13B50446012106200DF196
S214012D400702FFF795FD9DF807104CB141F04001D1
S214012D5006208DF80710FFF785FE002002B010BD93
S214012D6001F0BF01F4E708B5002814BF30210021A7
S214012D700520FFF777FE002008BD73B504460E4612
S214012D801546012106200DF10702FFF771FD002C03
S214012D9014BF002438240EB944F007049DF8071028
S214012DA06DB101F0F70106208DF80710FFF75AFE06
S214012DB021460720FFF756FE002002B070BD41F005
S214012DC00801F0E773B505460E46144601210620B4
S214012DD00DF10702FFF74CFD0DB906B9F4B100205D
S214012DE0FFF7A9FF0020FFF7BEFF2246314628461F
S214012DF0FFF7C3FF322003F0DDFD0120FFF7B3FF2D
S214012E009DF8073043F020038DF8073006209DF823
S214012E100710FFF727FE002002B070BD2046FFF71F
S214012E20A2FF9DF8073023F02003EDE710B5044616
S214012E30002914BF082100211020FFF713FE2146A8
S214012E401120FFF70FFE002010BD000001212DE923
S214012E50F043002285B080460846FFF78EFF9FEDBF
S214012E60800AFFF727FF2920FFF733FF0020FFF72F
S214012E706CFE6846FFF77CFD322003F09BFD402187
S214012E800320FFF7EFFD0F216920FFF7EBFD0E2171
S214012E906720FFF7E7FD0F216820FFF7E3FD00211C
S214012EA06820FFF7DFFD40210320FFF7DBFD05204B
S214012EB003F080FD0221702001AAFFF7D9FCBDF8BE
S214012EC004305BBA9BB2B3F57F6FF0D34FF00009C5
S214012ED00C2700216720FFF7C5FD0221702001AAFB
S214012EE0FFF7C6FCBDF804404D4664BAA4B2B4FB75
S214012EF0F7F74E464C461FFA89F3BB42C0F0928064
S214012F0096FBF7F607EE906A9DED007AF8EEE77A03
S214012F1095FBF7F567EE877AC8ED007A07EE905ACB
S214012F20F8EEE77A94FBF7F467EE877AC8ED017A54
S214012F3007EE904AF8EEE77A67EE877A01AAC8EDBF
S214012F40027A022140F20310FFF792FC9DF9043049
S214012F509DF8058001AA022140F2051048EA0328DF
S214012F60FFF786FC9DF904309DF8057001AA022141
S214012F7040F2071047EA0327FFF77AFC002E9DF977
S214012F8004209DF80530B8BF0336002DB8BF0335C1
S214012F90002C43EA0223B8BF0334A7EBA505A3EB35
S214012FA0A404A8EBA6062B12C6F307218DF806305B
S214012FB040F2031023128DF808308DF804108DF8B6
S214012FC005608DF807508DF80940FFF74BFD9DF819
S214012FD005104FF48270FFF745FD9DF8061040F28C
S214012FE00510FFF73FFD9DF807104FF48370FFF7BC
S214012FF039FD9DF8081040F20710FFF733FD9DF8E4
S21401300009104FF48470FFF72DFD00210320FFF710
S21401301029FD002211461046FFF7AFFE002005B03D
S214013020BDE8F08301AA0C217220FFF721FC9DF96F
S2140130300A209DF80B3009F1010943EA02231E44D8
S2140130409DF90C209DF80D3043EA02231D449DF99D
S2140130500E209DF80F3043EA02231C444BE700BFC5
S2140130600080894400234FF07E52436002608360F3
S214013070C360026143618361C3610262704791ED7F
S214013080027AF1EE477A10B592B0CDED017A8DED68
S214013090037AD1ED017A91ED007A00230446CDED55
S2140130A0027AF1EE476AF1EE677A6A46014609A8A6
S2140130B0009304930893CDED056ACDED067A8DED68
S2140130C0077A00F075FB204609AB04F12402D0ED27
S2140130D0007A93ED007A77EE877A93ED017AC0ED68
S2140130E0007AD0ED017A77EE877A93ED027AC0ED19
S2140130F0017AD0ED027A77EE877A0C3040ED017ACC
S214013100904203F10C03E2D112B010BD30B52DEDA3
S214013110028B00F10C058DB02946044600F0BEFB7B
S214013120FEEE007A20EE270A294603A88DED010A55
S21401313000F073FB9DED010A214606A800F06DFB29
S21401314003A92246084600F08EFB06A92A46084631
S21401315000F089FB06AA03A909A800F0AFFB03A9A2
S214013160084600F09BFBB0EE088AF6EE008A38EEC1
S214013170400A204620EE280A03A900F04EFB06A9C5
S214013180084600F08BFB38EE400A284620EE280A57
S21401319006A900F042FB09A9084600F07FFB38EEBD
S2140131A0400A09A920EE280A04F1180000F035FBB0
S2140131B00DB0BDEC028B30BD38B5D0ED080A90EDF0
S2140131C0070A04460D4626F023FD85ED000A94ED18
S2140131D0060A26F0F1FCB1EE400A85ED010AD4EDAF
S2140131E0000A94ED030A26F013FD85ED020A38BDA8
S2140131F00023002243628362C362036343638363E3
S214013200C2630364C3650366436603604360836009
S214013210C360036143618361C36103624364836482
S214013220C364036543658366C3660367704700002E
S214013230B7EE007AC7EE007A10B580ED140AC0ED3D
S214013240157A044610EE100A25F040FE02460B469B
S21401325005A1D1E9000125F0BBFF26F029F9A065FB
S21401326010BD00BFAFF30080399D52A246DF913FEB
S21401327080ED140A704791ED007AD0ED0C7A77EE66
S214013280877AC0ED0C7AD0ED0D7A91ED017A77EE62
S214013290877AC0ED0D7AD0ED0E7A91ED027A77EE4F
S2140132A0877AC36BC0ED0E7A0133C363704710B5DE
S2140132B0044686B090ED160A684600F0AEFA04F1B0
S2140132C05C02694603A800F0CEFA03A92046FFF780
S2140132D0D6FE2046FFF71AFF204604F16801FFF7E5
S2140132E06BFF06B010BD00002DE9F0432DED048BF9
S2140132F0884600F15C05044690ED098AD0ED0A8AFD
S21401330090ED0B9A85B02846174610EE106A00F02D
S2140133107FFAB8F1000F53D0606A25F0D7FD46A3B7
S214013320D3E900238046894626F0AEF8002847D028
S21401333043A3D3E900234046494626F09BF80028DC
S2140133403ED0A06A25F0C2FD3BA3D3E90023804608
S214013350894626F099F898B339A3D3E90023404665
S214013360494626F087F858B3B5EEC09AF1EE10FA42
S214013370B1EE488AB1EE680A04F1680825DB26F04A
S2140133801BFC8DED010AB0EE480A26F015FCB1EEE5
S214013390400A2846424601A98DED020A039600F02E
S2140133A06FFA284600F027FA0FB900236366D4EDBA
S2140133B0147AB6EE000A284680EE270A00F040FA94
S2140133C005B0BDEC048BBDE8F08326F0F5FB10EEEE
S2140133D0100A25F07BFD02460B461BA1D1E9000130
S2140133E025F014FC26F064F8B0EE480A019026F0A9
S2140133F0E3FBB1EE400A30468DED020A25F066FD8C
S21401340011A3D3E9002325F003FC26F051F803901D
S21401341001A800F0F0F94246284601A900F030FA6A
S214013420284600F0E8F9D4ED187AF1EE677AC4ED93
S214013430187AB9E7AFF30080C139234A7B83EFBF1F
S214013440C139234A7B83EF3F182D4454FB210940A1
S21401345010B50446243000F0DBF904F1300000F02A
S214013460D7F9002304F14400E36300F0D1F904F135
S214013470680000F0CDF904F15C0000F0C9F92046BF
S214013480BDE81040FFF7EEBD37B5044600F060F822
S2140134900128054629D104F124010846019100F0CE
S2140134A005F920460199FFF7E6FE04F144010846B6
S2140134B0019100F009F9D4ED117AF1EE677AC4EDC5
S2140134C0117AD4ED127AF1EE677A20460199C4EDAD
S2140134D0127AFFF7ECFE9FED060A002229462046E7
S2140134E003B0BDE83040FFF7FFBE03B030BD00BFFC
S2140134F0000000007FB502260F4D10482E70FFF722
S21401350077FEFFF7E3FA044680B90DF10300FFF7F3
S214013510A1FA044650B9032301A82B70FFF796FCC5
S214013520044618B92E70204604B070BDFFF720F986
S21401353000232B70F7E700BFCC0E0020D40E00202E
S2140135400022024B1A70FFF713B900BFCC0E002001
S214013550014B1878704700BFCC0E002070B50121D2
S2140135602DED028B0223B0EE408A214C82B0002260
S21401357008462370FFF701FCB0EE480AFFF700FB90
S2140135801C4D1D4E85ED000AB0EE480AFFF744FBC0
S214013590002086ED000AFFF7B5FB1920FFF799FB1F
S2140135A00020FFF7B9FA0020FFF7CFFA322003F028
S2140135B001FA00210120FFF739FC0121002208460B
S2140135C0FFF700FC01A8FFF72BFA96ED000A0B485F
S2140135D0FFF74EFE95ED000A0848FFF729FE07485B
S2140135E0FFF736FF0123237002B0BDEC028B70BDDE
S2140135F0CC0E0020480F0020D00E0020D40E002054
S2140136001A4AD36B6BB392ED0C6A9FED197A07EEEB
S214013610903A26EE076AF8EE677AC6EE276A92EDCA
S2140136200D6AFDEEE66A26EE076A16EE903AC6EEDB
S214013630276AFDEEE66A038016EE903AD2ED0E6A30
S21401364066EE876A86EEA77ABDEEC77A438017EEE6
S214013650103A838000231363536393630023D36379
S2140136607047038043808380704700BFD40E0020DC
S21401367000007A4407B500210846FFF7D7FBFFF79D
S2140136805FFFFFF737FF054B019093ED000AFFF749
S21401369065FF019803B05DF804FB00BF480F0020EA
S2140136A00148FFF7F1BE00BFD40E0020054A12788C
S2140136B0012A04D000220260426082607047FFF750
S2140136C027B900BFCC0E0020054A1278012A04D083
S2140136D000220260426082607047FFF771B900BF46
S2140136E0CC0E002008B5094B1B78012B01D0002019
S2140136F008BDFFF7A1F9064A1368013313600028D5
S214013700F5D0044A136801331360F1E7CC0E0020AC
S214013710C40E0020C80E00202DE9F0471EA7D7E9E9
S21401372000670FF27C09D9E900898246DAF80000C1
S21401373025F0CCFB32463B4604460D4625F0A4FE5A
S21401374098B90FF26409D9E9008915A7D7E9006786
S214013750DAF8000025F0BAFB42464B4604460D4611
S21401376025F07EFE60B9BDE8F08742464B4620460E
S214013770294625F04BFA25F09BFECAF80000D5E74E
S21401378032463B462046294625F042FA25F090FE71
S214013790CAF80000DCE700BF182D4454FB2109409D
S2140137A0182D4454FB211940182D4454FB2109C0FF
S2140137B070B501F1240502F10C0613460446F3EC3C
S2140137C0017A91ED006AD1ED016A93ED027A67EE16
S2140137D0867A46EE877AD1ED026A93ED057A46EE51
S2140137E0877AB342E4EC017AE9D10C318D4200F1DB
S2140137F00C00E2D170BD10B50446FFF78DFF201D09
S214013800FFF78AFF04F10800BDE81040FFF784BF08
S21401381000230360436083607047D1ED007A67EE52
S214013820807AC0ED007AD1ED017A67EE807AC0ED3C
S214013830017AD1ED027A27EE800A80ED020A7047FE
S214013840D0ED007A67EE807AC0ED007AD0ED017A8D
S21401385067EE807AC0ED017AD0ED027A27EE800A13
S21401386080ED020A704701F10C03F1EC017AB2EC2B
S214013870017A77EE877A9942E0EC017AF5D17047C2
S21401388001F10C03F1EC017AB2EC017A77EEC77A1A
S2140138909942E0EC017AF5D1704700009FED060AE7
S2140138A000F10C03B0EC017AF1EC017A984207EED4
S2140138B0270AF7D1704700BF0000000092ED016AA9
S2140138C0D1ED027AD1ED016A92ED027A67EE867A3F
S2140138D056EE877AC0ED007A92ED026AD1ED007A53
S2140138E0D1ED026A92ED007A67EE867A56EE877A15
S2140138F0C0ED017AD1ED017A92ED006AD1ED006A50
S21401390092ED017A67EE867A56EE877AC0ED027AF4
S214013910704700002DE9F047434D88B001AC0FCD4C
S2140139200FC495E80700012584E8070001213A2025
S21401393000F038FCDFF8FC800121282000F032FC82
S2140139403A4B404601A903938DF8125001F0A8FEA8
S2140139502B4604220021022001F0C2FA2A462946FB
S2140139600023022001F0BCFA02212B46084604225D
S21401397001F0B6FA04222B461146002001F0B0FAF7
S2140139804FF002132A4C0226C4F83036A3F58033D2
S214013990C4F82C361C231027C4F8346604F5005AE4
S2140139A0C4F81C364FF4487003F0E4F904F5805966
S2140139B01420CAF8107003F0DDF92320C9F810703E
S2140139C003F0D8F9B9214046CAF8107001F0CEFECE
S2140139D0002330461A461946C9F8107001F080FADD
S2140139E0002329461A46304601F07AFA2B4631461C
S2140139F03046002201F074FA00222B4610460421BC
S214013A0001F06EFA404601F01DFE00212820C4F8A0
S214013A103016C4F82C16C4F83416C4F81C1600F078
S214013A20C1FB08B0BDE8F08768A4030000127A0065
S214013A3000C0035000C00550FEE7000008B500F0C6
S214013A402DF8124B12498B4212D30020114B12490A
S214013A508B4218D3FEF798FB186850F82240586836
S214013A6040F82240013298688242F5D30C33EAE7E7
S214013A700022F8E71C6844F8220001325C68A24282
S214013A80F8D30833E4E70022F8E700BFA4EF030009
S214013A90B0EF0300B0EF0300B0EF03004FF40041B6
S214013AA04FF0FF30124B134A10B59A60D3F88820B6
S214013AB042F47002C3F888200F4A916601F18841EA
S214013AC001F5005210664FF6DF7050660220C3F80B
S214013AD0D000BFF34F8FBFF36F8F08244FF44033EE
S214013AE00648C0F88041D36004600B6110BD00BF7A
S214013AF000ED00E0002001000090005000E100E031
S214013B00014B1868704700BF140B0020084B1B6F51
S214013B1003F00703022B04D0032B05D0012B05D09D
S214013B20FEE7044B18687047034BFBE703487047F2
S214013B3000800050140B0020180B0020002D3101CE
S214013B4008B5FFF7E3FF054B1B6FC3F303330133E0
S214013B50B0FBF3F0024B186008BD00BF00800050B8
S214013B60100B00200048704700B4C404014B1868CD
S214013B70704700BF180B0020054B1860054B1B6FE4
S214013B8003F00703032B01D1FFF7DABF704700BF2D
S214013B90180B002000800050002070470048704736
S214013BA0002D31014FF4004070474FF47A70704792
S214013BB0014B1868704700BF1C0B00200020836A69
S214013BC010B5B3F5903F0AD2064C227812F0FD0FDD
S214013BD004D1DB69984708B90123237010BD4FF45F
S214013BE08170FBE74C0F00204FF00053074A1A6024
S214013BF0BFF34F8F0649074BCA6802F4E0621343CE
S214013C00CB60BFF34F8F00BFFDE700BF02020FF08E
S214013C1000ED00E00400FA05002303607047036826
S214013C200B6001607047000005490A6813180548D3
S214013C3083428CBF4FF0FF320B601046704700BFC7
S214013C40200B00200080002008B501213A2000F05A
S214013C50A9FA032101230422002001F041F90020E2
S214013C6001F03DF90122194B4FF46070C3F844246A
S214013C7000F0BAFA164B00F5D520D3F8F02000F282
S214013C80FC4042F00102C3F8F020D3F8FC2042F0D9
S214013C908072C3F8FC200F4AA3F55D431A600E4BF1
S214013CA00222B0FBF3F00D4B01381861C3F8F02087
S214013CB04FF48072C3F804234FF06043084A002093
S214013CC0C3F8B02F074AC3F8802E08BD00D00350B2
S214013CD000ED00E0FF030040F8590D00000004E08D
S214013CE055CEACC5090001004FF060420123D2F861
S214013CF0001E03FA00F00843C2F8000E00207047C9
S214013D004FF06043D3F8802E30B5D20715D5012485
S214013D100B4D8440D5F8FC2042F08072C5F8FC209B
S214013D20D3F8002E2243C3F8002E53F82020002A91
S214013D30F0D003F82010002030BD1120FCE700BFB2
S214013D4000ED00E0024B1968024B18681DF086BAB8
S214013D50280B0020240B00207047000037B5920086
S214013D6004460D46019226F007FA431C0BD060B9B3
S214013D7029462046019A25F0CBFD0028044808BFB5
S214013D80002003B030BD0348FBE70348F9E700BF56
S214013D9010E000F021E000F024E000F013B5044646
S214013DA001A801F02DFC9DF80630012223804FF476
S214013DB0807300206380054B9B680A3303F01F0362
S214013DC002FA03F3636002B010BD00BF0080E00F8B
S214013DD001F092BB08B501F07FFB002008BD10B5CD
S214013DE0044644EA010313F00303084609D193424B
S214013DF001D1002010BD54F8231040F823100133E0
S214013E00F5E72146920025F093FDF2E710B504464A
S214013E1026F0BAF9431C15D0B0B90C4B20469B6866
S214013E200A3303F01F020123934023F003032344C4
S214013E30984201D1002010BD50F8042B0132F7D072
S214013E400348F8E70348F6E70348F4E70080E00F85
S214013E500EE000F021E000F024E000F008B500F0EC
S214013E6089FE014B186008BDE0150020014B18685B
S214013E7000F084BEE01500200A460139014401F035
S214013E8051BF0000044BD3F88420D206FBD4D3F8EC
S214013E908400C0F3811070470040005038B5104BC5
S214013EA00546D3F820310C4603F00303022B0BD052
S214013EB0032B0DD0012B0FD1FFF722FE052305B1F1
S214013EC0286004B1236038BDFFF750FE0323F6E7F0
S214013ED0FFF764FE0223F2E700231846EFE700BF70
S214013EE00080005073B50D4600210E4B0191D3F8AA
S214013EF08041064604F00304012C09D0022C0CD0A4
S214013F000C460EB1019B336005B12C6002B070BD4A
S214013F1001A8FFF7C3FF0F24F3E7FFF73FFE019069
S214013F20EFE700BF0080005038B5174B0546D3F8C1
S214013F3024310C4603F00703013B052B20D8DFE8AC
S214013F4003F0030F171B0B13FFF7DAFD052305B16B
S214013F50286004B1236038BDFFF7D2FD0623F6E7DB
S214013F60FFF704FE0323F2E7FFF700FE0423EEE764
S214013F70FFF714FE0223EAE7FFF70EFE0723E6E744
S214013F8000231846E3E700BF0080005038B5104B09
S214013F900546D3F840310C4603F00303022B0BD041
S214013FA0032B0DD0012B0FD1FFF7FCFD092305B123
S214013FB0286004B1236038BDFFF7FAFD0823F6E751
S214013FC0FFF7F3FD0B23F2E700231846EFE700BFE8
S214013FD00080005038B5134B0546D3F800320C4626
S214013FE003F00703013B032B18D8DFE803F0020AAE
S214013FF00E12FFF7D7FD092305B1286004B123602F
S21401400038BDFFF7D5FD0823F6E7FFF7CEFD0B23F6
S214014010F2E7FFF795FD0E23800AEDE70023184629
S214014020EAE700BF0080005038B5104B0546D3F8CC
S21401403040320C4603F00303022B0BD0032B0DD0AA
S214014040012B0FD1FFF7AEFD092305B1286004B19E
S214014050236038BDFFF7ACFD0823F6E7FFF7A5FDA3
S2140140600B23F2E700231846EFE700BF008000505D
S21401407038B5104B0546D3F860310C4603F0030300
S214014080022B0BD0032B0DD0012B0FD1FFF78AFD8E
S214014090092305B1286004B1236038BDFFF788FD08
S2140140A00823F6E7FFF781FD0B23F2E70023184606
S2140140B0EFE700BF0080005010B40D4C0B46D4F85B
S2140140C0204204F00304012C0AD0022C0CD008B1C3
S2140140D0002101600BB100221A605DF8044B7047A5
S2140140E05DF8044BFFF7DABE5DF8044BFFF74EBFF1
S2140140F000800050B0F5207F1FD009D8B0F5007FB2
S21401410015D003D868B1B0F5C07F0AD000200CE006
S214014110B0F5607FFAD10B4BD3F88000C0F30110E5
S21401412003E0084B186FC0F3033001307047054BAE
S214014130D3F89000C0F30460F7E7024B186FC0F3A2
S2140141408020F2E7008000504FF400320E4B01460B
S21401415010B500209A66FFF7CDFF41F6713248434D
S2140141600A490B4B88428CBF4FF480100020DC6953
S214014170DA639A6822F4401202439A60E20344BF6B
S2140141800022DA6310BD00BF00900050005A6202A0
S2140141900000035008B5FFF7E5FCBDE80840002124
S2140141A0FFF7D2BF420910B510D0012A10D00B4B31
S2140141B00B4C022A18BF234600F01F0051B103F52D
S2140141C08053012202FA00F0186010BD1346F3E78F
S2140141D0044BF1E703F50053F3E700BF6880005096
S2140141E060820050648000501FB50023802804467A
S2140141F0019371D02AD8002872D0A0F12004412C56
S21401420032D8412C30D8DFE804F06B6E6B6E7D7DC2
S2140142107D7D6E6E873C9D623C6E6E6E2F2F2F2FBE
S2140142202F2F82546E6E6EA7A26E2F2F2F2F2F2F39
S2140142302F2F2F2F2F2F2F6B2F6B6B6B7D2F2F2F4A
S2140142402F2F2F2F2F2F2F2F2F2F6B6BB0F5806F28
S21401425058D021D8B0F5007F4FD008D8B0F5807F70
S2140142605FD0B0F5C07F3BD0019804B010BDB0F56B
S214014270607F42D0F8D8B0F5207F34D0B0F5407FCB
S214014280F2D1FFF75DFC02464FF42070FFF732FFD4
S214014290B2FBF0F0400821E0B0F5C06F52D00DD867
S2140142A0B0F5A06F33D0B0F5B06F35D0B0F5906FE4
S2140142B0DAD1002101A8FFF737FED5E7B0F5E06FA8
S2140142C045D0B0F5F06F47D0B0F5D06FCCD1002116
S2140142D001A8FFF77FFEC7E7FFF718FC0190C3E7C9
S2140142E0FFF72EFCFAE7FFF72BFC02464FF420708F
S2140142F0FFF700FFB2FBF0F0F0E7FFF707FC02461E
S2140143002046F5E7002101A8FFF7C8FDACE700212C
S21401431001A8FFF7D1FEA7E7002101A8FFF7E2FDFC
S214014320A2E702934FF0E0231B695B0705D5FFF771
S21401433007FC0290029B019396E703A902A8FFF7E8
S21401434025FEF7E7002101A8FFF720FE8CE70021F4
S21401435001A8FFF769FE87E7002101A8FFF788FE9D
S21401436082E7000008B58020FFF73EFF034B984226
S2140143709EBF4FF48032024B1A6708BD005A620294
S21401438000A000501FB50023B0F5807F019377D0C1
S21401439028D8382800F094800BD82438092810D85B
S2140143A009280ED8DFE800F0676767670D0D620D14
S2140143B0377D52285FD008D83D283BD03E2800F0F4
S2140143C08480019805B05DF804FB8028F9D1414B43
S2140143D01B6F03F00703013B032BF2D8DFE803F062
S2140143E044413F6CB0F5D06F5BD019D8B0F5A06FE3
S2140143F066D00AD8B0F5806F3DD0B0F5906FE0D1A9
S214014400002001A9FFF790FDDBE7B0F5B06F2DD0D6
S214014410B0F5C06FD5D1002001A9FFF7B7FDD0E7F1
S214014420B0F5006FECD00AD8B0F5E06F4DD0B0F51E
S214014430F06FC6D1002001A9FFF71AFEC1E7B0F55B
S214014440086FBED1234BD3F8003103F00303022BD0
S2140144502CD0032B2ED0012B30D1FFF787FB032363
S21401446000E005230193ACE70223FBE7002001A946
S214014470FFF738FDA5E7002001A9FFF70FFDA0E72C
S21401448002934FF0E0231B695B0705D5FFF758FB46
S2140144900C230393039BE5E703A902A8FFF776FD28
S2140144A0F8E7002001A9FFF795FD8AE7FFF780FBF3
S2140144B00823D7E7FFF770FB0723D3E70123D1E7EC
S2140144C0002001A9FFF7F8FD7BE7002001A9FFF70F
S2140144D0ABFD76E70080005008B5FFF753FF0828CC
S2140144E011D00938012811D84FF40012094B4FF6A4
S2140144F0FF705A6603F5D8335B6A13F0010F18BFD5
S2140145004FF4FA7008BD044B1888FBE74FF6FF70AE
S214014510F8E700BF00900050480B002070B5044635
S2140145208020FFF72FFF032800F082804FF400223F
S214014530444B02215A6645F60E03434AC2F88030C0
S214014540424B9962012103F580539962936DD90319
S214014550FCD4D4E900131B0543EA0163E17B94F81C
S21401456022500B43217B94F8236043EA0143617B8D
S21401457043EA0133A17B43EA811313619169D4E9CC
S21401458004031B0643EA806301F000410B43A17E4E
S214014590E07E0B43217E43EA0143617E43EA012329
S2140145A09361E369126A002B0CBF0021082122F0F7
S2140145B00D0242EA030242EA8002234B42EA01026A
S2140145C01A6294F820204FEA421232D1986A94F87F
S2140145D0211020F0330042EA0112024342F00102A8
S2140145E09A621B4A996D32EA0101FBD102221749F0
S2140145F08A621A659A6D5200FCD41869A26820F482
S214014600700040EA02504FF0004218610F4B9A6169
S2140146101DB9022203F580539A6216B901220D4B89
S2140146209A6294F824301BB1074B0B4AC3F88020DA
S21401463070BD996A21F0330131430A4342EA4502CB
S214014640EEE700BF0090005000C0005000D00050C0
S2140146500300014000E00050F1A7FFFF014B93F972
S2140146600000704794160020F0B5D0E901434FF4DE
S21401467080061A4A4178057856664FF4D1560227C5
S21401468002F5B8325662164E4F2977604FF0010791
S21401469028BF4F2106F5805677601669F603FCD4CD
S2140146A041EA052151611B01417B43EA04230B4387
S2140146B0017B43EA41039360C37B817B1B0143EA91
S2140146C04113417C0B43017C43EA41035360837CE5
S2140146D013B16FF4D1535362F0BD00BF0090005088
S2140146E000100250014B1880704700BF480B002095
S2140146F04FF4001208B5184B5A660223174A536046
S214014700936813F48033FBD1012822D1FFF72EFAE8
S214014710134B984215D003F5122303F5F86398421C
S21401472013D0104B00EB8002400AB3FBF0F0520AA4
S2140147300A4BDA62012218635A620022074B5A605A
S21401474008BD45F67A10084AF2E745F61A00074A08
S214014750EEE75362F1E700BF0090005000400250C0
S21401476000F0490264666666D8B80500BBCF05004E
S2140147700029CCBF01210021FFF7E6BCB0F5207F60
S21401478010B50C4642D008D8B0F5007F33D003D818
S21401479088B1B0F5C07F0ED010BDB0F5607FFBD1FB
S2140147A01F4B013CD3F8801021F0300141EA04147C
S2140147B0C3F88040F0E7FFF7EDFC00F035F84FF462
S2140147C08031184A164B1167196F013C21F470416C
S2140147D041EA04341C67FFF7B3F90446FFF752FBBE
S2140147E0C0F102012046FFF7C3FF00F023F8BDE841
S2140147F01040FFF7B7BD0A4B013CD3F8901021F0EB
S214014800F85141EA0464C3F89040C5E7044B013C03
S214014810196F21F4806141EA84241C67BCE700BF5C
S214014820008000500090005002214FF42070FFF7E6
S214014830A5BF000008B54FF4C070FFF7D5FCBDE872
S2140148400840044988428CBF022101214FF42070A0
S214014850FFF794BF80F0FA02B0F5807F70B50C4682
S21401486000F0F88029D8382800F04B8110D8243879
S214014870092816D8092814D8DFE810F0DC00DC0077
S214014880DC00DC0013001300CD00130047003301E9
S214014890522800F0CF8005D83D2851D03E2800F0A0
S2140148A0418170BD8028FCD18B1E052B00F2B080A3
S2140148B0DFE803F0AB99AE69AEA8B0F5D06F00F0B3
S2140148C0108132D8B0F5A06F00F01B8116D8B0F574
S2140148D0806F00F0AF80B0F5906FE2D1023C052CFE
S2140148E08CBF0021974B984A98BF195DD2F82431A6
S2140148F023F007030B43C2F82431D2E7B0F5B06FBB
S21401490000F08980B0F5C06FCBD1083C032C8CBF7A
S21401491000218E4B8C4A98BF195DD2F8403123F0A6
S21401492003030B43C2F84031BBE7B0F5006FD5D0A7
S21401493016D8B0F5E06F00F0F580B0F5F06FB0D1A5
S214014940083C032C8CBF0021814B7F4A98BF195D20
S214014950D2F8603123F003030B43C2F86031A0E7BD
S214014960B0F5086F9DD1CC1E052C8CBF0021794B6C
S214014970754A98BF195DD2F8003123F003030B4343
S214014980C2F800318DE7002502260121022000F041
S214014990B9F9FFF7FFFBFFF747FF4FF480316E4B86
S2140149A0694A1967136F23F0070333431367FFF749
S2140149B0C7F80646FFF766FAC0F102013046FFF770
S2140149C0D7FE0121002000F0DDF9FFF733FFFFF7E6
S2140149D0C9FC002D7FF465AF032C7FF462AF012282
S2140149E05E4B9A625DE74FF400225B4B0E465A66B9
S2140149F0012203F540539D6A03F58053C5F3400534
S214014A009A62C2E700250426BFE700250126BCE717
S214014A1000252E46B9E7022C03D0A4F10F0044422C
S214014A204441494BD3F8801121F003010C43C3F8EC
S214014A30804136E7023C032C8CBF0021484B424A9A
S214014A4098BF195DD2F8203123F003030B43C2F857
S214014A50203126E7A1F10804082C3FF622AF01A376
S214014A6053F824F0894A0100894A0100A34801004D
S214014A70894A0100B74A0100A3480100A348010082
S214014A80A3480100894A01004FF480322E4B354974
S214014A90586E03F580535A660B6A43F001030B62A6
S214014AA0C1035CBF304B5A664FF0E022136923F016
S214014AB004031361F5E64FF48032234B2949586EFF
S214014AC003F580535A660B6A23F001030B62C30396
S214014AD05CBF254B5A664FF0E022136943F004038E
S214014AE0E7E7083C062C8CBF0021204B164A98BFEE
S214014AF0195DD2F8003223F007030B43C2F80032E7
S214014B00CFE60F2C0CD0102C14BF002102210E4A28
S214014B10D2F8203223F003030B43C2F82032C0E65A
S214014B200121F4E7083C032C8CBF0021104B064AF8
S214014B3098BF195DD2F8403223F003030B43C2F845
S214014B404032AEE600A5030000800050FCA403003E
S214014B50FCA403000DA503000090005000E00050E7
S214014B60F8A4030000C0075000A0005006A50300EB
S214014B70FCA40300EFF3108072B6704700B962B66A
S214014B807047EFF31180302383F31188704780F369
S214014B9011887047194B10B51B6873B3184A5268D1
S214014BA0012A2AD0174A8020C2F80031FFF7EAFB13
S214014BB005281FD14FF4C070FFF79CFA0128044660
S214014BC004D102214FF4C070FFF7D8FD07220E4B27
S214014BD01A610122A3F580535A60094A1369DB075B
S214014BE0FCD5012C09D12146BDE810404FF4C07018
S214014BF0FFF7C4BD0122054B5A6010BD9816002070
S214014C0000C001500080005000E0015000D001506B
S214014C1000224FF40031074B1A60074A516602F52D
S214014C2098325268012A02BF044AD2F800211A605B
S214014C30704700BF9816002000900050008000507A
S214014C40044A4178536F23F4407343EA01235367C0
S214014C50704700BF004000507047704710B50446CB
S214014C6008B1FFF7D5FF0E4A136943F00403136139
S214014C7001F008FCFFF7F0FFFFF77CFF25F08CFA48
S214014C80FFF77CFFFFF7E9FF01F010FC1CB1BDE860
S214014C901040FFF77FBFBDE81040FEF751BF00BFD1
S214014CA000ED00E010B5044608B1FFF7B1FF0C4A6D
S214014CB0136943F00403136101F0E4FBFFF75AFFA5
S214014CC025F06AFAFFF75AFF01F0F0FB1CB1BDE8C8
S214014CD01040FFF75FBFBDE81040FEF731BF00BFD1
S214014CE000ED00E0FFF794BFFFF754BF034A0179D8
S214014CF0D36E23F030030B43D36670470040005059
S214014D0070470000F8B504461C4BD3F88420D10642
S214014D10FBD4D3F88430C3F381139C422CD0FEF726
S214014D20F5FE012C064602D12146FFF721FDFFF7CD
S214014D3021FF4FF00072124B07465A662046FFF7D6
S214014D40DFFF4FF480630D4D621E93402B676B6E41
S214014D509A0103D4D5F884309B060AD53846FFF766
S214014D600DFF022C08D13046BDE8F8400021FFF7C0
S214014D70FFBCD5F88430EAE7F8BD00BF004000501C
S214014D800060005007B518B90191FEF7BFFE019902
S214014D90064B1B7843B1064B984205D8012003B059
S214014DA05DF804EBFFF7AEBF0220F8E79C16002083
S214014DB0005A62020278034B012100201A70FFF7A5
S214014DC0E1BF00BF9C1600204FF0004210B5012441
S214014DD04AF6CD31154B5A66154A03F50B23546036
S214014DE05A6C1964224088B9996811F0010F11496B
S214014DF003D08C60D86AC007FCD501234B6012B182
S214014E000D4B0E4A1A641DF06CFB10BDD96A0907DA
S214014E10FCD42021074B59620121A3F580539960E8
S214014E2005494B6A9B06FCD5E9E700BF0090005098
S214014E300050095000600950004009503254FFFFED
S214014E404FF0004238B5194B194C5A66012203F54A
S214014E500C235A604AF6CD33656C236443781540BB
S214014E6093401343134AD363A368827823F07403F1
S214014E7043EA0213C278002A14BF04220022134315
S214014E80A3600279837943EA022323614279C379D5
S214014E9043EA022363610078FFF796FF0DB1064BE4
S214014EA023641DF01EFB012038BD00BF009000509A
S214014EB000400950004000503254FFFF70B50546CF
S214014EC014460E46FFF756FE296881EA040202EAF6
S214014ED006044C402C60BDE87040FFF74FBE70479B
S214014EE0F8B504460D461F4616464AB101238B40C7
S214014EF03021194A01FB0022FFB141F21001535043
S214014F0004EB4403072D4FF00F014FEA031317D8A4
S214014F10A80006FA00F2814010481844FFF7CEFFB9
S214014F2056B9012130230C4801FA05F503FB0400AC
S214014F3077B141F21003C550F8BD42F21001DEE729
S214014F40A5F10800800006FA00F281400448E4E773
S214014F5042F21003EFE700BF00C0035004C0035045
S214014F600CC003504369DB01FCD4012300F500505B
S214014F7043607047022A10B54FF0000405D9033A82
S214014F80022A0CD90360047110BD11F4000218BF87
S214014F904FF07F4221F07F4313430C0EF2E721F0DE
S214014FA0FF03CCB2EEE730B4012500F58053446828
S214014FB05D608B780D88C9781B04002914BF4FF4F7
S214014FC00031002103F480332B430B43C0F89830A3
S214014FD0E30702D430BCFFF7C5BF30BC704738B515
S214014FE00C460546FFF7BEFF2378114603F007027D
S214014FF06378002BA37818BF08204FEA031303F049
S214015000300343EA0203E27808BF0020002A14BFF7
S2140150104FF480720022034313432B672379607990
S214015020EA6A1B02000300F4805003F4E06322F4F2
S2140150308B32034322F480721343A2792846002A56
S21401504014BF4FF4803200221343EB62FFF7ABFF2D
S214015050012305F580525360E27902B1EB6038BD59
S21401506001210246F8B500F580535960274B2849BF
S214015070C36053690B40FCD19361C2F89830536901
S21401508013F4401FFBD15369D9052DD4936F5BBB35
S21401509053699B052AD4D2F8881039BB1046D36FC2
S2140150A0D2F88C30FFF75EFF30231A4891608242B7
S2140150B00CBF02200020116142F26005D1620F464A
S2140150C011621367C2F880300B46134E834210D12B
S2140150D00020104B9A4201D1102911D10F4B02F535
S2140150E0005253629362F8BD536FCCE7D2F8843016
S2140150F0CEE702EB0314A564013326656765E5E791
S21401510001F1280442F824000131E3E7120002000D
S214015110520001000040005A00C002808F330F8009
S214015120084608B529B92A20FFF75EF8012838BFD6
S2140151300120064900F5742000F23F20B0FBF1F093
S21401514001387F2828BF7F20C0B208BD40420F002B
S21401515010B50B4C8C4228BF0C461AB92A20FFF713
S21401516043F80246601E0244B2FBF4F0A24228BF96
S21401517000F1FF30032828BF0320C0B210BD00BFD6
S214015180005A620210B51048104C002B18BF20467A
S214015190884228BF084604461AB92A20FFF724F891
S2140151A002469DF808000130B2FBF0F2601E024490
S2140151B0B2FBF4F340F2FF30A24228BF03F1FF3303
S2140151C0984228BF184610BD80969800404B4C0068
S2140151D02DE9F04F2DED048B0C4687B0AF491546EF
S2140151E000220746FFF7B4FF6379984238BF184696
S2140151F05FFA80F93846FFF7B5FE217919B93846C6
S214015200FFF78EFF0146E3784FEA09721B0102F0B1
S214015210E04203F0300313430804227800F4FE0052
S21401522003430AB143F0020362780AB143F0040370
S214015230A2780AB143F008034FF00008BB60E38888
S21401524022893B616389DFF860A243EA02433B623D
S214015250574502D1B8F1020F08D1012307F580574F
S2140152607B6007B0BDEC048BBDE8F08F00222C7884
S2140152708B488C49AE68944218BF014623468A483B
S214015280CDF80090FFF77EFFB6B28642334638BFB0
S214015290034607EB081103938B6C04F0030623F017
S2140152A0435323F41D1323F4405323F01F033343C6
S2140152B06E78EA78B60006F01C061E43AB784FEA15
S2140152C008101B0303F4E0433343160406F4E026F8
S2140152D033432E7C760506F4600633432E79360773
S2140152E006F0405633438B648B6C7049C3F302332C
S2140152F0013B042B00F28580DFE803F08383830300
S2140153000300D1F8843108F1050B002C6FD10AEBAC
S21401531000039C6CC4F30234631E012B634B73D8E9
S214015320DFED637AD3F88041A4B223044FF0010382
S2140153305044806C24F4C046C0F3820000F1010E94
S21401534003FA0EFE07EE10EA4FEA8646B8EEC79A53
S214015350F6EE008A554B48BF46F00046002871D14C
S214015360D3F88C311BB208EE103AB8EEC88A37EE85
S214015370888A002A7BD105A800F042F9DFED4D7A34
S214015380DFED4D6A86EE897ADFED4C6A67EE887A44
S21401539027EE267AF1EE006AB6F1004F07EEA67AFE
S2140153A00BD0DFED476A07EE904A37EE266AFAEE33
S2140153B0E87AB0EE667A17EE867AB5EEC07AF1EE46
S2140153C010FACABFB1EE477A38EEC77A37EE687A76
S2140153D0FDEEC77A17EE903AB3F5003F54DB6FEA5D
S2140153E056466FEA46464FEA0B134AF80360039B9C
S2140153F00AEB0B11C3F309024A6008F101081435E0
S21401540026E7D1F880317EE7032C0AD1D3F8804114
S214015410D3F88C31240C1B1407EE903AF8EEE77A99
S21401542083E7042CD3F884410BBFD3F88C31D3F82F
S2140154308C311B141B1407BFA4B25B00240C03EBB6
S2140154404303E9E7D3F89001D3F8883100B207EEB9
S214015450100AB8EEC77A77EE677A29EE287A1BB279
S21401546087EE878A07EE903AF8EEE77A7FE7D5ED82
S214015470037ADFED146AF8EE677A87EEA67AF7EE1E
S214015480046AC6EE877A7BE713F5003FAABFC3F32B
S214015490110346F400361E43A5E700BF005A620218
S2140154A0404B4C00809698000040005A0080E00F68
S2140154B0000000003D3B843F000080430000204484
S2140154C00000004900007A4408B50A6F496F02F0EF
S2140154D00702FFF74FFD08BD4FF40032054B9A66F1
S2140154E041F6713203F51C33DA63012203F50053EA
S2140154F0DA6070470090005041F671320121064B88
S214015500DA6303F50052D1600022DA634FF4003209
S214015510A3F518339A667047000003504FF0B04366
S2140155205A6812B19A6A002AFAD17047CB784A783B
S21401553010B55B010C7843EA82030A79234343EAF8
S21401554002130C22424302F1B0421363012C02BF44
S2140155508A78024B43F8202010BD00BFE880035034
S21401556008B54FF0B0435A6802B960B15B680BB139
S214015570FFF7D4FF4FF0B04130B10120074B586020
S214015580FFF7CCFFC86008BDFFF7C8FF0223CB605A
S214015590FFF7C4FF0122024B5A60F4E700100058DF
S2140155A0002000584FF0B0435B6870B50BB1FFF7B1
S2140155B0B5FF0121104B4578596083780679002B99
S2140155C0C37814BF02240024002B14BF0422002237
S2140155D04379DB0043EA06132B43234313434FF07F
S2140155E0B0429360054B59600378002B14BF0B46FD
S2140155F00223D36070BD00BF002000580010005881
S2140156004FF48032064B5A6603F5E6235B69C3F313
S2140156108512827003F03F021B0B427003707047C5
S2140156200090005038B50546144621B94FF4207055
S214015630FEF7DAFD014601396400B1FBF4F1090217
S214015640E96138BD012200F5805310B55A6040F675
S214015650AA6341F20502436100230E498360C365D4
S214015660C26000F500520361C361C36491640A49D4
S2140156708365884202D0094CA04207D1884203655F
S21401568002D0064B984201D10023436501235360A3
S21401569010BD00BFFFFF010000C00550000006500E
S2140156A038B50D46FFF7CEFF0122A97B00F58053E2
S2140156B05A602A8A8368002914BF4FF4806100214A
S2140156C042F0010213432A7D0B43002A14BF4FF018
S2140156D00052002283608368044613438360AB7CD8
S2140156E05BB11D4AEB7C90422DD1A2F51032C2F877
S2140156F08C31E36D43F08003E3652B7B2046D5E9CF
S214015700011243F48053E360FFF78CFF6B7B0BB110
S214015710102363616B7D1BB1A36843F48033A360E0
S214015720AB7D1BB1A36843F40043A360EB7D2A7EE7
S2140157301B07120503F0E04302F4E0021343A365DE
S2140157402B78636138BD054A904204BFA2F520322A
S214015750C2F89C31CDE700BF00C0055000000650DE
S21401576083691B06FCD5406AC0B2704783695A0636
S214015770FCD5C16383699B06FCD5406AC0B27047FD
S21401578083695B06FCD5C1637047000038B50446E3
S214015790054D1CF0CCFE0FCC0FC594E8030085E840
S2140157A00300002038BD00BFA016002047F6FF7397
S2140157B09A42F0B563D0022963D8334BCF0003EB8E
S2140157C0C10013F831108478012913D10025C3785C
S2140157D01B1B9D4202D3E018C0B2F0BD591B4668A0
S2140157E0A3EB510136F911609642D4BF0D4601F183
S2140157F0FF33EEE740680028EFD0B0F90010914281
S21401580004DBB0F902109142B8BF114682883B44CE
S214015810FF2A19BFC8222826B0F90620B0F9086069
S214015820A2EB01020CBF0125002592FBF6F25F7880
S2140158302A447B1E934228BF13464FF47A7E00EB20
S214015840C305AE68EA88AC4611FB02621E4622EA30
S214015850E272013302F5FA729F42B2FBFEF204D9FC
S214015860BCF80CC008359445EBD200EBC600808826
S214015870904228BF1046A04238BF2046ACE7FF2022
S214015880ABE70020A9E700BFA01600200229F0B56B
S21401589053D82B4800EBC10410F831106368012976
S2140158A00FD1E078A478904294BFC4EB0001C4EB1A
S2140158B00201001BCAB28242C8BF002233F912009D
S2140158C0F0BD002B39D0A178914202D3B3F9020082
S2140158D0F6E7E178B3F900009142F1D99988647846
S2140158E0A1F1FF06013C714203F10405E4B27141E6
S2140158F003F10C071FFA82FCCEB2B44216D805EBB0
S214015900C1014FF47A756A43B1F902404968521AE7
S21401591004EBD47102EB610292FBF4F29042CFDB0E
S214015920B3F902009042CBDC10B2C9E737F831E098
S2140159304E1CE645E3D33146DEE70248C0E700BF2A
S214015940A01600200080FFFF08B50448FFF71EFFE1
S214015950BDE8084001201CF005BE00BF14A50300E9
S214015960004870474A0B00207FB50222084B0949C0
S214015970CDE901234FF00073CDE90313052301A9F7
S2140159804FF0FF3005931CF055FE07B05DF804FBA1
S214015990006A18000002040007B56B46054A106845
S2140159A0516803C36846FFF74BFA002003B05DF861
S2140159B004FB00BF98A5030013B50024064A6846F9
S2140159C0536F43F00103536700948DF80440FFF7CB
S2140159D08DF9204602B010BD0040005030B58BB0A6
S2140159E06C46154D0FCD0FC40FCD0FC495E80300BF
S2140159F084E80300114BD3F84C21120314D4D3F8D6
S214015A005041E4B28DF81940FEF728FE204480F399
S214015A1008008DF818000A48FEF7AEF86846FEF74B
S214015A207DFD00200BB030BD064B1C884FF6FF7382
S214015A309C4208BF7824E5E7A0A503000080E00F9C
S214015A4000F049020001E00F08B50120FEF750FE04
S214015A50002008BD30B5094D87B001AC0FCD0FC48D
S214015A602B6801A8236025238DF80530FEF7FCFD81
S214015A706420FEF737FE002007B030BDC8A503003E
S214015A806FF00402502110B50A480B4C12F0800F3B
S214015A90D3B21BBF03F00F03043BA3181B1802F17C
S214015AA001020CBF83F800131976402AEED10020BC
S214015AB010BD00BF00ED00E000E100E000F078B8A6
S214015AC038B500F065FE0446E0B900F061FF4FF41A
S214015AD0167343430C4803F5742303F23F23B3FBC9
S214015AE0F0F30A4A0A4913600A220D680948013A86
S214015AF012F0FF0240F8043BF9D103EBC3022B443A
S214015B0013440B60204638BD40420F00F4160020B7
S214015B10C0160020C4160020012208B5034B1A70D7
S214015B2000F02AFF024B186008BD00BFBC1600201B
S214015B30F0160020F8B5144C237823B300F01CFFB0
S214015B40124B134D1B68134EC01A012838BF012093
S214015B50114B124F18602B7856F8232046F8230075
S214015B60111A3A680E48521A0A213A600932B2FBF3
S214015B70F1F20133DBB20260B3FBF1F201FB123347
S214015B802B7000232370F8BDBC160020F0160020F1
S214015B90EC160020C4160020B8160020C0160020FF
S214015BA0F4160020014B1868704700BFF416002059
S214015BB020234FF400220A4981F82C33094B5A66F8
S214015BC0094A03F5405303F50050426702674FF454
S214015BD08050C1F88401486003445A67704700BF8B
S214015BE000E100E000900050010000A0044B9A6D17
S214015BF0D20702D40028FAD170470120704700BFAF
S214015C0000C000500C4B10B51C6FE20707D50122EF
S214015C1003F500531A67FFF78DFF00F06DFB14F0D4
S214015C2000521CBF054B1A67002CBEBF4FF0004246
S214015C30024B1A6710BD00BF00C0005000E00050C4
S214015C40FFF7E0BFBFF35F8F074B5A6A22F480323B
S214015C505A62D3F8942022F00102C3F89420BFF3CD
S214015C604F8FBFF36F8F704700ED00E070B5264889
S214015C70264CFFF7E7FF844208BF4FF08043244AD3
S214015C8018BF20F01F03D2F8C01018BF203B21F028
S214015C90FF0141F0A001B3F1005FC2F8C0100CD3C0
S214015CA01C4D1D4E296843F00103C2F898100131BE
S214015CB0C2F89C60C2F8A0302960844210D0154812
S214015CC0164B0268124923F01F0343F00303C1F881
S214015CD09820C1F89C30124B0132C1F8A030026006
S214015CE0BFF35F8F05220A4BC3F894205A6A42F429
S214015CF080325A62BFF34F8FBFF36F8FBFF34F8F60
S214015D00BFF36F8F70BD00BFB80C0020900E00204F
S214015D1000ED00E0F816002003000020AF0E002082
S214015D20E1FFFF3F10B51446FFF78CFF1F2C24D967
S214015D301C4A1D4CD2F8C03023F47F4343F48073D1
S214015D40C2F8C030C2061CBF20F01F002030CB06B0
S214015D50144A236818BF21F01F0120F01F0021F00C
S214015D601F01C2F8983040F0030041F003010133EF
S214015D70C2F89C00C2F8A0102360BFF35F8F052213
S214015D80084BC3F894205A6A42F480325A62BFF331
S214015D904F8FBFF36F8FBFF34F8FBFF36F8F00200F
S214015DA010BD00BF00ED00E0F8160020BFF34F8FD6
S214015DB00549064BCA6802F4E0621343CB60BFF3A1
S214015DC04F8F00BFFDE700BF00ED00E00400FA05BD
S214015DD008B5FFF7EBFF08BD034B1B78002B14BF7C
S214015DE001200220704700BF2C1700200329F8B5B8
S214015DF098BF124B05460E468CBF00245C5C0328F8
S214015E0005D8DFE800F002080B0E44F002040C4B44
S214015E101F684FB9F8BD44F00804F8E744F02004C1
S214015E20F5E744F08004F2E77B681A68144203D071
S214015E30314628465B6898473F68EAE7DCA50300D9
S214015E402817002038B5104D2B78ABB10F4C2378AE
S214015E501BB100F057FB00232370002000F074FBF9
S214015E600B4C50B100F07AFB0023012120782B70F7
S214015E70FFF7BCFF0123237038BD0122054B1A70C2
S214015E802278054B1A70F7E7261700202117002005
S214015E9018170020251700203817002010B5FEF728
S214015EA069FE064B04461B781BB1BDE81040FEF7A1
S214015EB065BEFFF7C7FF2046F7E700BF20170020A3
S214015EC0002814BF0121FF21074A13780B441370E1
S214015ED008D0064B1B78012B04D9054B1B780BB950
S214015EE0FFF7B0BF704700BF2C170020181700201F
S214015EF02517002070B5FEF73DFE114E0546337896
S214015F008BB900F045FC044620B12846FEF736FE64
S214015F10204670BD0B48FDF77FFE0B4B1C6000F062
S214015F2037FD0A4B186000F02FFA00F04BFB084BC8
S214015F3000241860012328463370FEF71FFEE7E7AA
S214015F4022170020281700203C17002034170020B5
S214015F501C17002000292DE9F34114BF0121FF2160
S214015F60254A00F1FF30135C0B4413543AD0234EFC
S214015F703278012A36D9FFF72FFF0128044634D894
S214015F801F4FFEF7F7FD3B781BB31E4D2B781BB951
S214015F9001222A701C4A1370DFF8708098F80030CE
S214015FA033B1019000F0AEFA0023019888F8003072
S214015FB0FEF7E4FD012000F0C7FAFEF7DBFD2B78C3
S214015FC02BB1019000F0CAFA002301982B70002330
S214015FD03B70FEF7D3FD3078A04203D02146FFF791
S214015FE005FF347002B0BDE8F081032AF3D1022820
S214015FF0F1D100F001FBEEE72C1700201817002066
S2140160002617002020170020251700202117002022
S21401601010B50446FEF7AEFD002C14BF0121FF218A
S214016020064A13780B44DBB21370B3FA83F3BDE868
S2140160301040034A5B091370FEF7A0BD2F1700201E
S2140160402E17002068B5FEF795FD094B06461B780E
S214016050012B04D8FEF792FD0025284668BD054BA6
S2140160601D6800F0B3FA05443046FEF787FDF4E7F5
S214016070181700203C17002007B5FEF77BFD01909E
S214016080FFF7E0FE019803B05DF804EBFEF776BD7E
S21401609038B541600446FEF76DFD054621460448C5
S2140160A0FDF7BDFD2846BDE83840FEF767BD00BFD9
S2140160B028170020054B1B685843054B00F5742034
S2140160C000F23F20B0FBF3F0704700BF341700200A
S2140160D040420F002DE9FF47FEF74CFD044600E065
S2140160E000BFFCF794FA002800F09C806D4E6E4FBE
S2140160F0337823B10020FFF7E3FE00233370FFF768
S2140161006BFE0546002800F09580851EEDB2012D38
S21401611040F29880FFF760FE0128804604D9634B61
S2140161201B780BB900F0ACF9614DDFF8A491287823
S214016130DFF8A0A140450AD0002389F800309AF87C
S214016140003013B94146FFF751FE85F8008099F8F3
S21401615000303BB12B78022B04D1002389F80030A4
S2140161601CF0FEFEB8F1010F0FD9DFF8408198F858
S214016170003053B94F4B1B7823B900F0BDF901220B
S2140161804D4B1A70012388F80030287800F004FA85
S2140161909AF8003013B1494B1B782B7000E000BF12
S2140161A02046FEF7EBFCFEF7E5FC454B04461A7865
S2140161B052B100221A70414B28781B78984203D1BD
S2140161C001212970FFF712FE384600F01BFBFCF791
S2140161D029FA804600288BD1344F89F800003B7895
S2140161E09BB1DFF8D4908AF8000099F800301BB113
S2140161F000F088F989F80080002000F0A5F9002851
S21401620046D000F0ABF900233B70337823B1002071
S214016210FFF756FE0023337000212878FFF7E6FDCE
S21401622000232B7000E000BF204604B0BDE8F04715
S214016230FEF7A4BC3378002B3FF46CAFFFF740FEAB
S214016240357067E7002003A900F05EFB05460028CD
S2140162507FF460AF1B4B039A1B689A4205D8012056
S214016260FFF72EFE0123337054E7174BD3F8008057
S21401627000F0ACF9039940448842F0D20223091A8F
S214016280CDE9005338462B46104A00F0E3FA41E7C1
S214016290012000F081F92046FEF770FCFEF76AFC4B
S2140162A00446A9E730170020FC1600202617002018
S2140162B0181700202F17002021170020381700205C
S2140162C0241700201C1700203C1700209D5E0100AB
S2140162D02E1700202517002010B5FEF74BFC0022D4
S2140162E0044B1C781A70FEF749FC00F049FC204369
S2140162F0C0B210BD2317002010B5094B1B786BB137
S214016300084C237853B100F029F90023064A23707C
S21401631013700123054A1370054A137010BD00BFA0
S2140163201817002025170020261700202317002005
S214016330241700207047000073B5114E04463378C9
S214016340834212D000238DF8043080B102238DF8E9
S214016350053001A8FEF774FC0A4D402054B1FFF742
S214016360A9FE2B68181A2860347002B070BD8DF82B
S2140163700500EEE7FFF79EFE2B681844F3E700BF23
S214016380500B00204817002073B5002401A88DF893
S2140163900440FEF70FFD20464FF40024FFF7CCFF24
S2140163A03149324B0A6F02F007021A60D1F82031E8
S2140163B0D1F8240101F580514C664FF400344C6647
S2140163C001F598318969032A00F0070001F00201FE
S2140163D041D003F003039C1E63426341022808BFB9
S2140163E043F001032248234D037061B31E4A3BB9B3
S2140163F0D2F8003103F00303591E4B424B410370A0
S214016400D2F8003103F00303022B26D0032B27D04A
S214016410012B18D1FDF7AAFBA8B1174B411EDC686A
S2140164200023024608461946C4F30B04134E0134F2
S21401643004EB8404E4FB060123F08AF8FFF73AFE36
S2140164402B68184428606420FFF734FE2B68184434
S214016450286002B070BD0123C0E7FDF7A9FBDBE7AA
S214016460FDF79AFBD8E700BF0080005040170020D8
S214016470461700204817002000C0015040420F0078
S214016480FEF730BC074B1A7852B100221A70064A42
S214016490136F23F0070343F001031367FDF750BBA7
S2140164A0704700BF44170020008000500E4B10B507
S2140164B01B7883B1022000F017FC60B100F056FA99
S2140164C048B10A4B9A6DD20306D5DB6D9B0703D5FF
S2140164D00122074B9A6210BD0124064B1C70FFF780
S2140164E01BFB034B9C62F6E74617002000C00050DA
S2140164F000D00050451700200122014B1A7070474A
S2140165004417002038B50C4B1B786BB10B4C237825
S2140165107BB90B4B0B4D9A6D12F4803F05D0DB6DAA
S2140165209B0702D50123AB6238BDFFF7F5FA0123BD
S214016530AB6200232370F7E74617002045170020BB
S21401654000C0005000D00050034B1B780BB1FFF782
S2140165504DBB0120704700BF4617002008B5FEF767
S214016560C3FB094A0949136F096823F007030B4364
S2140165701367074B1B7813B10122064B9A62BDE8DD
S2140165800840FDF7DDBA00BF00800050401700202C
S2140165904617002000E0005002280AD003280BD03E
S2140165A001280CD1064A136923F00403136130BF96
S2140165B070470020FEF752BB0020FEF773BB704702
S2140165C000ED00E04FF4C870FFF774BD08B5054B49
S2140165D0187818B1FFF7E6FA00EBD000024B1B68FB
S2140165E0184408BD46170020481700200122014B19
S2140165F01A70704746170020704700230B707047CB
S21401660010B500F00BFB0A4C0A4B19682368C31A35
S21401661001B10BB9206010BD4A699A423ABF9B1A74
S2140166200022D21A4A6128BF00238968F0E700BF1A
S2140166305017002064170020C38870B504460D4625
S2140166403BB9FFF7FFFC8542064602D2FFF714FD71
S21401665035460F4965610B68ABB90C60A36011E064
S214016660AD1A9A68184665612AB113465A69AA4254
S214016670F6D950B11A4613468460A36013B159691E
S214016680491B596170BD0020F0E70C60F5E700BFBB
S2140166906417002038B5134D2B685B6993B1124A15
S2140166A0022014681C4400F0F3FA204600F0BEFAFB
S2140166B000230E492A680B70D088800709D501236C
S2140166C00B7038BD022000F0E3FA022000F004FB54
S2140166D0EEE79268002AF4D050690344012BEBD907
S2140166E0EFE700BF6417002050170020581700205E
S2140166F070B516469DF81420C0E903360271049A57
S214016700BDF8183002600022C380826004460D4640
S21401671000F084FA3044A0613DB9E368656113B1C5
S21401672020462168984796B13546FEF723FA064675
S214016730FFF766FF29462046FFF77EFF054B1B68DD
S214016740A34201D1FFF7A6FF3046FEF717FA002055
S21401675070BD00BF6417002000220C490B687BB196
S21401676083420AD183687AB1936083681BB15A6900
S21401677041690A445A61002070471A469B68EEE751
S2140167800028EFD0022070470B60EEE76417002068
S21401679070B5FEF7F6F9144E05463478FCB9134B7E
S2140167A01C60134B1C60134B1C8000F0F5F9012094
S2140167B000F06EFA00F0C2FA0F4B0246186020B9DC
S2140167C02846FEF7E4F9232070BD234640F2E73160
S2140167D00A4822F0BDFE0A4B186001233370284692
S2140167E0FEF7D5F90020EFE74C17002064170020CC
S2140167F0501700205A1700206017002018FCFFFFD2
S214016800541700202DE9F0410546F8B1FEF7B2F91C
S2140168100F4F0646FFF7F4FE2846D7F80080FFF72D
S2140168209BFF044628B13046FEF7A8F92046BDE88E
S214016830F081A8453B6803D123B1FFF72BFFF2E7B0
S214016840002BF0D1022000F02FFAECE72224EDE72E
S2140168506417002070B586B015461E46044605919D
S21401686080B1FFF7CFFFBDF82C30002202939DF8D0
S21401687028302046CDE9006305992B46FFF738FFFF
S21401688006B070BD2220FBE738B50C46054698B128
S21401689091B100230B70FEF774F90121074B1B68B9
S2140168A00BB122781AB1FEF772F9002038BDAB425F
S2140168B014BF9B682170F3E72220F7E764170020D6
S2140168C0F0B51F46002387B00D46164604468DF8E0
S2140168D01730A0B10DF11701FFF7D6FF9DF817206D
S2140168E07AB9BDF83430294602939DF830302046F7
S2140168F0CDE900733346FFF7FBFE07B0F0BD22205B
S214016900FBE70320F9E700002DE9F041074688463A
S214016910FEF737F900260546124B1C6824B92846AF
S214016920FEF735F91B2016E063691E44E388BB4277
S21401693015D100F073F90C4C2368C01AB0420CD282
S21401694000F06CF922683244121A2846C8F8002072
S214016950FEF71DF90020BDE8F0810022F5E7A468E6
S214016960DCE700BF6417002050170020014B1878A1
S214016970704700BF5817002038B5FEF702F90546E4
S21401698000F04CF904462846FEF701F9204638BDCA
S214016990014B1868704700BF60170020044B1B6846
S2140169A058434FF47A7300F2E730B0FBF3F07047C8
S2140169B060170020012300B58BB08DF80B30FFF770
S2140169C0EDFF00230146CDE90033074A0DF10B0325
S2140169D003A8FFF775FF18B99DF80B30002BFBD104
S2140169E00BB05DF804FB00BFFB6501000C4B70B5F6
S2140169F01B680D46834211D340F2E73100248C46D2
S214016A002146084B4FF47A721E680023E0FB06C14C
S214016A10604622F09DFD2860204670BD2120FCE7DF
S214016A2054170020601700200F4B10B51A689AB152
S214016A304FF47A71531E1342A0FB01010ED1B2FA34
S214016A4082F2C2F11F04531CD243E04001FA03F361
S214016A50184321FA02F20243104610BD002322F029
S214016A6077FD0246F8E700BF60170020C2072DE950
S214016A70F34704460BD53F4A138801339BB2138074
S214016A80FFF7BEFD3C4B1B680BB1FFF703FEA307E8
S214016A906DD5FEF776F8002605463746FFF7B0FDBA
S214016AA0B146DFF8D480D8F800400CB163698BB1E9
S214016AB00022324B012F1A7002D1022E08BF1F701E
S214016AC0002C44D0FFF7E6FD284602B0BDE8F047AB
S214016AD0FEF75DB823461A792179914288BF1C4694
S214016AE09B6813B15A69002AF5D02846FEF74FF87D
S214016AF0256985B300F092F8A269861AF317B542A4
S214016B0079EB030328DA23691344A361012322697D
S214016B1082B17BB9A91B0191FEF733F88246019930
S214016B202046FFF789FDA369226950461344A361F5
S214016B30FEF72DF8E368E688013713B12046216891
S214016B409847FEF71EF80546FFF75AFDABE7022009
S214016B5000F0AAF8B8E72E46FEF713F8824620465C
S214016B60FFF7FAFD5046FEF712F80023CFE702B012
S214016B70BDE8F0875A170020641700205C17002034
S214016B8010B5FDF7FEFF034B1C78FEF700F8204614
S214016B9010BD00BF5C1700201FB500241C4B01214F
S214016BA018689A880290D3F806009B7A00903E20D7
S214016BB0ADF80C208DF80430FDF7F4FA02A88DF834
S214016BC008408DF80C40FEF7EDFC694601208DF873
S214016BD00040FEF7ABFC4FF0B04240F2FF31936944
S214016BE023F47F7323F0030393610A4B5961936A7D
S214016BF013F00803FBD113620120FEF7B1FC4FF43A
S214016C008052054BC3F880211A6004B010BD00BF46
S214016C10E0A503000020005800E100E04FF0B0437B
S214016C209A6A1207FCD4186A7047000010B5044629
S214016C30FDF7A0FF4FF0B042936A1907FCD4136A20
S214016C40116C5269520604D4CA1A032A01D8994211
S214016C500ED1E21A022A98BFDC1CB4F1FF3F38BFFE
S214016C60013C4FF0B0431C649A6942F040029A61BD
S214016C70FDF784FF054A13783BB14FF0B041CB6B6B
S214016C8043F00203CB630023137010BD510B0020A9
S214016C9082074FF0B04200F00103916948BF43F00C
S214016CA040030B4393617047820700F001030AD546
S214016CB00121084A43F0400311704FF0B041CA6BFE
S214016CC022F00302CA634FF0B0418A6922EA030345
S214016CD08B617047510B0020830742BF4022014B56
S214016CE05A617047001000584FF0B04301285B69A5
S214016CF004D0022805D1C3F38010704703F00100C9
S214016D00704700207047000010B5FDF73AFF4FF0BE
S214016D10B04304465B695A06074A03F0010003F0D4
S214016D20510348BF40F002005361FFF79FFE204623
S214016D30BDE81040FDF72BBF002000583E20FDF7B0
S214016D4053BA08B5FBF7FEFBFBF736FCFBF73BFC3B
S214016D50FBF74AFCBDE80840FBF74FBC08B5FBF75C
S214016D604DFCFBF74CFCFBF74BFCBDE80840FBF782
S214016D7049BC000010B50446FCF7E2FE0C4BA0F53A
S214016D807A729A4212D84FF47A73B0FBF3F05C43EE
S214016D90084BB3FBF0F0B4FBF0F0022806D9BDE8CF
S214016DA010400323B0FBF3F000F00AB810BD00BF9B
S214016DB0FFC99A3B40420F0000000000000000009F
S214016DC0013800D0FCE77047FCF70EBF08B504F0A9
S214016DD017F90AF03DFB07F08BF908F08CFA002052
S214016DE008BD0000024A0349034803F079BD00BF0D
S214016DF0ECA5030038A6030010A6030038B5044628
S214016E00FDF7B8FE0546204622F072FD04462846E8
S214016E10FDF7B4FE204638BD37B504460191FDF7AF
S214016E20A9FE01990546204622F022FD0446284681
S214016E30FDF7A4FE204603B030BD38B50546FDF784
S214016E4099FE0446284622F05BFD2046BDE8384000
S214016E50FDF794BE0A4619B1024B00211B6818477C
S214016E60704700BF540B002000F4E040B0F5805F8F
S214016E7004D0A0F50053584258417047012070478E
S214016E800E4B0340B3F1607F06D1B1F5885F14BFA6
S214016E906FF0860000207047B3F1707F0BD101F4CC
S214016EA0E043B3F5005F06D111F4E06F0CBF6FF05D
S214016EB08600002070476FF0860070470000C07F94
S214016EC08A42F8B507460D4600F021819B4822F01C
S214016ED0FF01814210D09A4C22F4FF7323F0010384
S214016EE0A34209D0974B994206D0974922F47F7363
S214016EF023F003038B4223D125F0FF01814210D0FA
S214016F008F4825F4FF7323F00103834209D08D4B8C
S214016F10994206D08C4925F47F7323F003038B42F4
S214016F200ED115F0FF030BD0884943F000738B4256
S214016F3006D16A4032F0FF030CBF01200020F8BDE5
S214016F4005F0FE43B3F1A06F17D102F0FE43B3F193
S214016F50A06F40F0DE8082EA050333F47E1340F032
S214016F60D88015F40040EAD0C5F30540C2F30542C7
S214016F7090428CBF00200120E1E7B3F1407F40F052
S214016F80B38002F0FE43B3F1407F40F0C28082EA54
S214016F90050333F47E1640F0BC8039462846FFF7D9
S214016FA06FFF002840F0B580694C12F47C1C04EA9F
S214016FB0020438D0B4F1607FC2F3054C7AD165493A
S214016FC0D3B243F000738B4278D003F17E4104398B
S214016FD0012975D960498B4276D001318B4275D033
S214016FE001318B4274D001318B426BD001318B421F
S214016FF06AD001318B4269D003318B4264D00131B2
S2140170008B4263D001318B4262D001318B4208BF83
S214017010402615F47C1FC5F305435BD1664514BFB6
S214017020002001208BE7B4F1607F2BD14949D3B210
S21401703043F000738B426ED003F17E41043901297F
S2140170406CD945498B426FD001318B426FD00131EB
S2140170508B426FD001318B4263D001318B4263D0BA
S21401706001318B4263D003318B425DD001318B42BB
S2140170705DD001318B425DD001318B4208BF4FF0AC
S214017080400C9CE7B4F1707FC3D107F4E043B3F53D
S214017090005F05D14FF0010CC7F302230CFA03FC85
S2140170A007F4E043B3F5005FB3D10126C7F302232B
S2140170B09E40AEE7B4F1707FABD1F1E71026A8E7AA
S2140170C01426A6E74026A4E71C26A2E72026A0E76A
S2140170D030269EE712F47C1F01D1B34217D02A0452
S2140170E07FF52DAF634544E7B3F1106F11D125F05D
S2140170F01F6323F4702363B902F0FE43B3F1106FEC
S21401710007D11648104040F01060A84287E70120DA
S21401711015E7002013E74FF0100C50E74FF0140C62
S2140171204DE74FF0400C4AE74FF01C0C47E74FF095
S214017130200C44E74FF0300C41E700BF0013000677
S214017140000200060009000600040006FF00000217
S2140171500000C07F03000002080000020000FFF6E6
S2140171607FB500F0FE46B6F1106F0D4603D06FF006
S214017170850004B070BD20F01F6424F47024002C38
S214017180F5D10A9C0294099C0194089C009401F094
S21401719001F810F1860FECD16B681B0AE9D1E6E71E
S2140171A02DE9F843884617461C4601F0C9F80546FE
S2140171B0002859D1D8F80060B6F8009009F4E043E9
S2140171C0B3F5804FF36808BF27F0010737EA0303DA
S2140171D042D1002C48D02F4A24F0FF03934211D00D
S2140171E02D4924F4FF7222F001028A420AD02B4A6A
S2140171F0934207D024F47F7222F0030201F5007156
S2140172008A4234D114F0FF0231D022498B4211D088
S214017210214824F4FF7121F0010181420AD01F495F
S2140172208B4207D024F47F7323F00303A1F5A061FA
S2140172308B4204D142F00073194A93421ED0224673
S21401724048463169FFF73CFE074668B9224648467C
S2140172507169FFF735FED0B96FF08405002330461B
S214017260C8F8003001F0BAF82846BDE8F88304F003
S214017270FE43B3F1407F04D12304E0D56FF08605C9
S214017280ECE7B3F1A06FF7D0054B9C42D6E73D463D
S214017290EAE700BF00130006000200060009000628
S2140172A0FF00000238B5037904460D4633B9A368DA
S2140172B020462B6001F092F838B938BDD0E90812A3
S2140172C001F050F90028F2D0F7E700232B60F4E72D
S2140172D000F0FE43B3F1407F70B505460E4640F020
S2140172E09980FFF7CDFD002840F0968015F47C1FAD
S2140172F005D0C5F30543032B13700DD86BE04C4B3B
S2140173002B40B3F1607F69D14A49EBB243F0007379
S2140173108B4231D110231370454C2C40B4F1607F61
S2140173206AD14449EAB242F000728A4275D002F14B
S2140173307E410439012972D93F498A4271D001310F
S2140173408A4270D001318A426FD001318A4211D00F
S21401735001318A4265D001318A4264D003318A42C2
S2140173605FD001318A425ED001318A425DD001315F
S2140173708A424FD140214BE003F17E410439012975
S21401738001D81423C7E72C498B4201D11C23C2E73D
S2140173902A498B4201D12023BDE729498B4201D1DD
S2140173A03023B8E727498B4201D14023B3E726496A
S2140173B08B42EBD001318B42EDD003318B42E5D0CD
S2140173C001318B42E7D001318B42E9D001318B424A
S2140173D0EBD0002313706FF085001DE0B3F1707FD2
S2140173E0F7D101F4E043B3F5005FF2D10123C1F315
S2140173F002218B40DBB27EE7B4F1707F0AD106F43E
S214017400E042B2F5005F05D10121C6F302229140A8
S2140174108B4201D96FF0860070BD1021F8E7142168
S214017420F6E71C21F4E72021F2E73021F0E700BF60
S2140174300000C07F030000020800000209000002ED
S2140174400A0000020B0000020C0000022DE9F047C2
S214017450174624220D460021044692B00DEB020089
S2140174609A46DDE91A868DF81F10DDF8709022F035
S21401747086FA1D9B2046002B18BF4FF480622B46D0
S21401748008BF4FF4006208A9FFF78AFE044620BB36
S214017490DDF820C009ACBCE80F000FC49CE807006B
S2140174A084E807002846BDF824100DF11F02FFF7F7
S2140174B00FFF044688B99DF81F30B34224D8CDE9A2
S2140174C00339CDE901A8089900972B46D1E908129E
S2140174D009A800F00CFE044620B10023C9F800609C
S2140174E08DF81F309DF81F00B04204D2321A2121B8
S2140174F0404422F044FA089800F070FF002C18BFB0
S214017500204612B0BDE8F0876FF08904E5E7002356
S2140175102DE9F341D0E9016804460F46304611468D
S214017520136000F065FF054688B9304600F062FF3B
S214017530054660B9F6B276B9B8F1000F05D1E36831
S21401754023F47F4323F0030363B16FF086052846D7
S21401755002B0BDE8F0810146A06800F044FE0028B4
S214017560EDD1F2E74FF6F87362889A421CD8238B66
S21401757023F00103002BE8D1394601A800F09EFE56
S21401758005460028E3D10FCC3F683E460FC694E877
S21401759007003B7986E807000BB9019BBB603B8B74
S2140175A023F001033B83D2E76FF08505CFE7B0F503
S2140175B0105F0DD009D8B0F5885F10D0B0F5905F98
S2140175C00DD041F20103984209D06FF08500704753
S2140175D021F04003802B02D0B1F5807F06D111F057
S2140175E0070F14BF6FF08600002070476FF086000B
S2140175F0704770B5046A05460E463CB90120FFF790
S2140176000BFC286228B120466E6270BD6FF08A00BE
S214017610FBE76FF08C00F8E773B50E46114605469A
S2140176200192FFF7E6FF044620B93146019A286A1F
S21401763022F07EF9204602B070BD2DE9F041089D8A
S21401764088461F46048802B32046FFF70DFCE0B1CA
S2140176502B680BB9D3002B6020462968FFF7A7FFDC
S214017660044678B9CE1DB2EBD60F11D1069B9A42CD
S21401767011D84146384622F05BF92B68079A073342
S214017680DB0813602046BDE8F0816FF08504F9E75A
S2140176906FF08604F6E76FF08904F3E710B5044649
S2140176A0006A10B1616AFFF7D5FB206AFFF7C5FBD8
S2140176B00020C4E9080010BD38B50446FFF7EEFF08
S2140176C0E3692822012B0CBF05466FF096050021C1
S2140176D0204622F054F9284638BD13B5044660B159
S2140176E001A900F02DFE044638B90198C369012BA3
S2140176F006D900F073FE6FF08304204602B010BD79
S2140177000379FF2B0BD01BB1806800F085FE044681
S2140177100198FFF7D1FF002818BF0446EDE76FF088
S2140177208404F5E773B5044608460E4600F0D6FB1A
S214017730002320461A4601A9FFF732FD70B93446E8
S214017740019D0FCD0FC495E8070084E80700338B31
S214017750019803F00103338300F040FE02B070BDD0
S21401776070B5144602881D461046049EFFF77CFB42
S21401777050B944F2010322F44050984204D002F476
S2140177804F42B2F5824F0ED1B4420FD82246284658
S21401779022F0CEF80021321B281922F0F0F8002042
S2140177A0059B1C6070BD6FF08500FBE76FF08900DC
S2140177B0F8E72DE9F04188461F4616468CB022B3FD
S2140177C0002301223B6002A9FFF7EAFCD0B9DDF8ED
S2140177D008C003AC6546CDE90A000FCD0FC495E895
S2140177E0070084E80700CDE900674346DCE9081294
S2140177F003A800F03EFC0446029800F0EFFD002CC2
S21401780018BF20460CB0BDE8F0816FF08900F9E79B
S21401781070B51446028844F2010022F440568642AE
S214017820049D04D002F44F40B0F5824F13D102F408
S214017830E042B2F5804F0ED1AC420FD81846224630
S21401784022F076F800212A1B204422F098F8002026
S214017850059B1C6070BD6FF08500FBE76FF089002B
S214017860F8E72DE9F0438946984617468DB052B39E
S214017870002302A91A46C8F80030FFF791FCE0B9C8
S214017880029E33885B041BD5354603ACCDE90A005E
S2140178900FCD0FC495E8070084E80700CDE900780E
S2140178A04B46D6E9081203A800F0EEFB0446029800
S2140178B000F094FD002C18BF20460DB0BDE8F08303
S2140178C06FF08604F3E76FF08900F6E72DE9F041E3
